{
  "contractName": "Main",
  "abi": [
    {
      "constant": true,
      "inputs": [
        {
          "name": "",
          "type": "uint256"
        }
      ],
      "name": "teacheracc",
      "outputs": [
        {
          "name": "",
          "type": "address"
        }
      ],
      "payable": false,
      "stateMutability": "view",
      "type": "function",
      "signature": "0x7024974d"
    },
    {
      "constant": true,
      "inputs": [
        {
          "name": "",
          "type": "uint256"
        }
      ],
      "name": "studentacc",
      "outputs": [
        {
          "name": "",
          "type": "address"
        }
      ],
      "payable": false,
      "stateMutability": "view",
      "type": "function",
      "signature": "0xaf4fda7e"
    },
    {
      "constant": true,
      "inputs": [
        {
          "name": "",
          "type": "uint256"
        }
      ],
      "name": "cerificateHash",
      "outputs": [
        {
          "name": "",
          "type": "string"
        }
      ],
      "payable": false,
      "stateMutability": "view",
      "type": "function",
      "signature": "0xc2567e45"
    },
    {
      "anonymous": false,
      "inputs": [
        {
          "indexed": true,
          "name": "_from",
          "type": "address"
        },
        {
          "indexed": true,
          "name": "_to",
          "type": "address"
        },
        {
          "indexed": false,
          "name": "certId",
          "type": "string"
        },
        {
          "indexed": false,
          "name": "count",
          "type": "uint256"
        },
        {
          "indexed": false,
          "name": "verify",
          "type": "address[3]"
        }
      ],
      "name": "Check",
      "type": "event",
      "signature": "0xbfe96fc3dab10acb5699297ced34bfdf5fbc7a65b3e04557be5b74a90f2f15c6"
    },
    {
      "constant": false,
      "inputs": [
        {
          "name": "u",
          "type": "string"
        },
        {
          "name": "n",
          "type": "string"
        },
        {
          "name": "cer",
          "type": "string"
        },
        {
          "name": "coll",
          "type": "string"
        }
      ],
      "name": "setStudent",
      "outputs": [
        {
          "name": "",
          "type": "bool"
        }
      ],
      "payable": false,
      "stateMutability": "nonpayable",
      "type": "function",
      "signature": "0x86186998"
    },
    {
      "constant": true,
      "inputs": [
        {
          "name": "ins",
          "type": "address"
        }
      ],
      "name": "getStudent",
      "outputs": [
        {
          "name": "",
          "type": "string"
        },
        {
          "name": "",
          "type": "string"
        },
        {
          "name": "",
          "type": "string"
        },
        {
          "name": "",
          "type": "string"
        }
      ],
      "payable": false,
      "stateMutability": "view",
      "type": "function",
      "signature": "0x6b7b44d7"
    },
    {
      "constant": true,
      "inputs": [],
      "name": "getStudentAddress",
      "outputs": [
        {
          "name": "",
          "type": "address[]"
        }
      ],
      "payable": false,
      "stateMutability": "view",
      "type": "function",
      "signature": "0x3c732815"
    },
    {
      "constant": false,
      "inputs": [
        {
          "name": "n",
          "type": "string"
        },
        {
          "name": "i",
          "type": "string"
        },
        {
          "name": "d",
          "type": "string"
        },
        {
          "name": "dom",
          "type": "string"
        }
      ],
      "name": "setTeacher",
      "outputs": [
        {
          "name": "",
          "type": "bool"
        }
      ],
      "payable": false,
      "stateMutability": "nonpayable",
      "type": "function",
      "signature": "0x32f26e98"
    },
    {
      "constant": true,
      "inputs": [],
      "name": "getTeacherAddress",
      "outputs": [
        {
          "name": "",
          "type": "address[]"
        }
      ],
      "payable": false,
      "stateMutability": "view",
      "type": "function",
      "signature": "0x3650d11b"
    },
    {
      "constant": true,
      "inputs": [
        {
          "name": "ins",
          "type": "address"
        }
      ],
      "name": "getTeacher",
      "outputs": [
        {
          "name": "",
          "type": "string"
        },
        {
          "name": "",
          "type": "string"
        },
        {
          "name": "",
          "type": "string"
        },
        {
          "name": "",
          "type": "string"
        }
      ],
      "payable": false,
      "stateMutability": "view",
      "type": "function",
      "signature": "0xfb4326fa"
    },
    {
      "constant": false,
      "inputs": [
        {
          "name": "addr",
          "type": "address"
        }
      ],
      "name": "destroy",
      "outputs": [],
      "payable": false,
      "stateMutability": "nonpayable",
      "type": "function",
      "signature": "0x00f55d9d"
    },
    {
      "constant": false,
      "inputs": [
        {
          "name": "studAdd",
          "type": "address"
        }
      ],
      "name": "verify",
      "outputs": [
        {
          "name": "",
          "type": "string"
        }
      ],
      "payable": true,
      "stateMutability": "payable",
      "type": "function",
      "signature": "0x63a9c3d7"
    }
  ],
  "bytecode": "0x608060405234801561001057600080fd5b506129ba806100206000396000f3fe6080604052600436106100ae576000357c0100000000000000000000000000000000000000000000000000000000900463ffffffff168062f55d9d146100b357806332f26e98146101045780633650d11b146103a95780633c7328151461041557806363a9c3d7146104815780636b7b44d71461053e5780637024974d1461074c57806386186998146107c7578063af4fda7e14610a6c578063c2567e4514610ae7578063fb4326fa14610b9b575b600080fd5b3480156100bf57600080fd5b50610102600480360360208110156100d657600080fd5b81019080803573ffffffffffffffffffffffffffffffffffffffff169060200190929190505050610da9565b005b34801561011057600080fd5b5061038f6004803603608081101561012757600080fd5b810190808035906020019064010000000081111561014457600080fd5b82018360208201111561015657600080fd5b8035906020019184600183028401116401000000008311171561017857600080fd5b91908080601f016020809104026020016040519081016040528093929190818152602001838380828437600081840152601f19601f820116905080830192505050505050509192919290803590602001906401000000008111156101db57600080fd5b8201836020820111156101ed57600080fd5b8035906020019184600183028401116401000000008311171561020f57600080fd5b91908080601f016020809104026020016040519081016040528093929190818152602001838380828437600081840152601f19601f8201169050808301925050505050505091929192908035906020019064010000000081111561027257600080fd5b82018360208201111561028457600080fd5b803590602001918460018302840111640100000000831117156102a657600080fd5b91908080601f016020809104026020016040519081016040528093929190818152602001838380828437600081840152601f19601f8201169050808301925050505050505091929192908035906020019064010000000081111561030957600080fd5b82018360208201111561031b57600080fd5b8035906020019184600183028401116401000000008311171561033d57600080fd5b91908080601f016020809104026020016040519081016040528093929190818152602001838380828437600081840152601f19601f820116905080830192505050505050509192919290505050610e45565b604051808215151515815260200191505060405180910390f35b3480156103b557600080fd5b506103be61107e565b6040518080602001828103825283818151815260200191508051906020019060200280838360005b838110156104015780820151818401526020810190506103e6565b505050509050019250505060405180910390f35b34801561042157600080fd5b5061042a61110c565b6040518080602001828103825283818151815260200191508051906020019060200280838360005b8381101561046d578082015181840152602081019050610452565b505050509050019250505060405180910390f35b6104c36004803603602081101561049757600080fd5b81019080803573ffffffffffffffffffffffffffffffffffffffff16906020019092919050505061119a565b6040518080602001828103825283818151815260200191508051906020019080838360005b838110156105035780820151818401526020810190506104e8565b50505050905090810190601f1680156105305780820380516001836020036101000a031916815260200191505b509250505060405180910390f35b34801561054a57600080fd5b5061058d6004803603602081101561056157600080fd5b81019080803573ffffffffffffffffffffffffffffffffffffffff169060200190929190505050611dbf565b6040518080602001806020018060200180602001858103855289818151815260200191508051906020019080838360005b838110156105d95780820151818401526020810190506105be565b50505050905090810190601f1680156106065780820380516001836020036101000a031916815260200191505b50858103845288818151815260200191508051906020019080838360005b8381101561063f578082015181840152602081019050610624565b50505050905090810190601f16801561066c5780820380516001836020036101000a031916815260200191505b50858103835287818151815260200191508051906020019080838360005b838110156106a557808201518184015260208101905061068a565b50505050905090810190601f1680156106d25780820380516001836020036101000a031916815260200191505b50858103825286818151815260200191508051906020019080838360005b8381101561070b5780820151818401526020810190506106f0565b50505050905090810190601f1680156107385780820380516001836020036101000a031916815260200191505b509850505050505050505060405180910390f35b34801561075857600080fd5b506107856004803603602081101561076f57600080fd5b8101908080359060200190929190505050612148565b604051808273ffffffffffffffffffffffffffffffffffffffff1673ffffffffffffffffffffffffffffffffffffffff16815260200191505060405180910390f35b3480156107d357600080fd5b50610a52600480360360808110156107ea57600080fd5b810190808035906020019064010000000081111561080757600080fd5b82018360208201111561081957600080fd5b8035906020019184600183028401116401000000008311171561083b57600080fd5b91908080601f016020809104026020016040519081016040528093929190818152602001838380828437600081840152601f19601f8201169050808301925050505050505091929192908035906020019064010000000081111561089e57600080fd5b8201836020820111156108b057600080fd5b803590602001918460018302840111640100000000831117156108d257600080fd5b91908080601f016020809104026020016040519081016040528093929190818152602001838380828437600081840152601f19601f8201169050808301925050505050505091929192908035906020019064010000000081111561093557600080fd5b82018360208201111561094757600080fd5b8035906020019184600183028401116401000000008311171561096957600080fd5b91908080601f016020809104026020016040519081016040528093929190818152602001838380828437600081840152601f19601f820116905080830192505050505050509192919290803590602001906401000000008111156109cc57600080fd5b8201836020820111156109de57600080fd5b80359060200191846001830284011164010000000083111715610a0057600080fd5b91908080601f016020809104026020016040519081016040528093929190818152602001838380828437600081840152601f19601f820116905080830192505050505050509192919290505050612186565b604051808215151515815260200191505060405180910390f35b348015610a7857600080fd5b50610aa560048036036020811015610a8f57600080fd5b8101908080359060200190929190505050612406565b604051808273ffffffffffffffffffffffffffffffffffffffff1673ffffffffffffffffffffffffffffffffffffffff16815260200191505060405180910390f35b348015610af357600080fd5b50610b2060048036036020811015610b0a57600080fd5b8101908080359060200190929190505050612444565b6040518080602001828103825283818151815260200191508051906020019080838360005b83811015610b60578082015181840152602081019050610b45565b50505050905090810190601f168015610b8d5780820380516001836020036101000a031916815260200191505b509250505060405180910390f35b348015610ba757600080fd5b50610bea60048036036020811015610bbe57600080fd5b81019080803573ffffffffffffffffffffffffffffffffffffffff1690602001909291905050506124ff565b6040518080602001806020018060200180602001858103855289818151815260200191508051906020019080838360005b83811015610c36578082015181840152602081019050610c1b565b50505050905090810190601f168015610c635780820380516001836020036101000a031916815260200191505b50858103845288818151815260200191508051906020019080838360005b83811015610c9c578082015181840152602081019050610c81565b50505050905090810190601f168015610cc95780820380516001836020036101000a031916815260200191505b50858103835287818151815260200191508051906020019080838360005b83811015610d02578082015181840152602081019050610ce7565b50505050905090810190601f168015610d2f5780820380516001836020036101000a031916815260200191505b50858103825286818151815260200191508051906020019080838360005b83811015610d68578082015181840152602081019050610d4d565b50505050905090810190601f168015610d955780820380516001836020036101000a031916815260200191505b509850505050505050505060405180910390f35b6000808273ffffffffffffffffffffffffffffffffffffffff1673ffffffffffffffffffffffffffffffffffffffff16815260200190815260200160002060008082016000610df8919061288c565b600182016000610e08919061288c565b600282016000610e18919061288c565b600382016000610e28919061288c565b600482016000610e3891906128d4565b6007820160009055505050565b600060011515600560003373ffffffffffffffffffffffffffffffffffffffff1673ffffffffffffffffffffffffffffffffffffffff16815260200190815260200160002060009054906101000a900460ff1615151415610ea95760009050611076565b60011515600160003373ffffffffffffffffffffffffffffffffffffffff1673ffffffffffffffffffffffffffffffffffffffff16815260200190815260200160002060009054906101000a900460ff1615151415610f0b5760009050611076565b6000600460003373ffffffffffffffffffffffffffffffffffffffff1673ffffffffffffffffffffffffffffffffffffffff168152602001908152602001600020905085816000019080519060200190610f669291906128e9565b5084816001019080519060200190610f7f9291906128e9565b5083816002019080519060200190610f989291906128e9565b5082816003019080519060200190610fb19291906128e9565b5060063390806001815401808255809150509060018203906000526020600020016000909192909190916101000a81548173ffffffffffffffffffffffffffffffffffffffff021916908373ffffffffffffffffffffffffffffffffffffffff160217905550506001600560003373ffffffffffffffffffffffffffffffffffffffff1673ffffffffffffffffffffffffffffffffffffffff16815260200190815260200160002060006101000a81548160ff02191690831515021790555060019150505b949350505050565b6060600680548060200260200160405190810160405280929190818152602001828054801561110257602002820191906000526020600020905b8160009054906101000a900473ffffffffffffffffffffffffffffffffffffffff1673ffffffffffffffffffffffffffffffffffffffff16815260200190600101908083116110b8575b5050505050905090565b6060600280548060200260200160405190810160405280929190818152602001828054801561119057602002820191906000526020600020905b8160009054906101000a900473ffffffffffffffffffffffffffffffffffffffff1673ffffffffffffffffffffffffffffffffffffffff1681526020019060010190808311611146575b5050505050905090565b606060001515600560003373ffffffffffffffffffffffffffffffffffffffff1673ffffffffffffffffffffffffffffffffffffffff16815260200190815260200160002060009054906101000a900460ff16151514156113d5578173ffffffffffffffffffffffffffffffffffffffff163373ffffffffffffffffffffffffffffffffffffffff167fbfe96fc3dab10acb5699297ced34bfdf5fbc7a65b3e04557be5b74a90f2f15c66000808673ffffffffffffffffffffffffffffffffffffffff1673ffffffffffffffffffffffffffffffffffffffff168152602001908152602001600020600701546000808773ffffffffffffffffffffffffffffffffffffffff1673ffffffffffffffffffffffffffffffffffffffff1681526020019081526020016000206004016040518080602001848152602001836003801561132f576020028201915b8160009054906101000a900473ffffffffffffffffffffffffffffffffffffffff1673ffffffffffffffffffffffffffffffffffffffff16815260200190600101908083116112e5575b5050828103825260278152602001807f54656163686572204e6f7420696e204e6574776f726b3a20496e76616c69642081526020017f4164647265737300000000000000000000000000000000000000000000000000815250604001935050505060405180910390a36040805190810160405280600f81526020017f496e76616c6964206164647265737300000000000000000000000000000000008152509050611dba565b60001515600160008473ffffffffffffffffffffffffffffffffffffffff1673ffffffffffffffffffffffffffffffffffffffff16815260200190815260200160002060009054906101000a900460ff161515141561160e578173ffffffffffffffffffffffffffffffffffffffff163373ffffffffffffffffffffffffffffffffffffffff167fbfe96fc3dab10acb5699297ced34bfdf5fbc7a65b3e04557be5b74a90f2f15c66000808673ffffffffffffffffffffffffffffffffffffffff1673ffffffffffffffffffffffffffffffffffffffff168152602001908152602001600020600701546000808773ffffffffffffffffffffffffffffffffffffffff1673ffffffffffffffffffffffffffffffffffffffff16815260200190815260200160002060040160405180806020018481526020018360038015611568576020028201915b8160009054906101000a900473ffffffffffffffffffffffffffffffffffffffff1673ffffffffffffffffffffffffffffffffffffffff168152602001906001019080831161151e575b50508281038252602b8152602001807f4365727469666963617465204e6f7420696e204e6574776f726b3a20496e766181526020017f6c69642041646472657373000000000000000000000000000000000000000000815250604001935050505060405180910390a36040805190810160405280600f81526020017f496e76616c6964206164647265737300000000000000000000000000000000008152509050611dba565b60036000808473ffffffffffffffffffffffffffffffffffffffff1673ffffffffffffffffffffffffffffffffffffffff168152602001908152602001600020600701541415611812578173ffffffffffffffffffffffffffffffffffffffff163373ffffffffffffffffffffffffffffffffffffffff167fbfe96fc3dab10acb5699297ced34bfdf5fbc7a65b3e04557be5b74a90f2f15c66000808673ffffffffffffffffffffffffffffffffffffffff1673ffffffffffffffffffffffffffffffffffffffff168152602001908152602001600020600701546000808773ffffffffffffffffffffffffffffffffffffffff1673ffffffffffffffffffffffffffffffffffffffff16815260200190815260200160002060040160405180806020018481526020018360038015611792576020028201915b8160009054906101000a900473ffffffffffffffffffffffffffffffffffffffff1673ffffffffffffffffffffffffffffffffffffffff1681526020019060010190808311611748575b5050828103825260148152602001807f5665726966696564204365727469666963617465000000000000000000000000815250602001935050505060405180910390a36040805190810160405280601581526020017f56657269666966656420436572746966696361746500000000000000000000008152509050611dba565b60008090505b6003811015611ad9576000808473ffffffffffffffffffffffffffffffffffffffff1673ffffffffffffffffffffffffffffffffffffffff1681526020019081526020016000206004018160038110151561186f57fe5b0160009054906101000a900473ffffffffffffffffffffffffffffffffffffffff1673ffffffffffffffffffffffffffffffffffffffff163373ffffffffffffffffffffffffffffffffffffffff161415611acc578273ffffffffffffffffffffffffffffffffffffffff163373ffffffffffffffffffffffffffffffffffffffff167fbfe96fc3dab10acb5699297ced34bfdf5fbc7a65b3e04557be5b74a90f2f15c66000808773ffffffffffffffffffffffffffffffffffffffff1673ffffffffffffffffffffffffffffffffffffffff168152602001908152602001600020600701546000808873ffffffffffffffffffffffffffffffffffffffff1673ffffffffffffffffffffffffffffffffffffffff168152602001908152602001600020600401604051808060200184815260200183600380156119fe576020028201915b8160009054906101000a900473ffffffffffffffffffffffffffffffffffffffff1673ffffffffffffffffffffffffffffffffffffffff16815260200190600101908083116119b4575b5050828103825260298152602001807f4365727469666963617465642043616e206265207665726966696564206f6e6c81526020017f79204f6e63652e2e2e0000000000000000000000000000000000000000000000815250604001935050505060405180910390a3606060405190810160405280602681526020017f4365727469666963617465642063616e206265207665726966696564206f6e6c81526020017f79204f6e63650000000000000000000000000000000000000000000000000000815250915050611dba565b8080600101915050611818565b50336000808473ffffffffffffffffffffffffffffffffffffffff1673ffffffffffffffffffffffffffffffffffffffff1681526020019081526020016000206004016000808573ffffffffffffffffffffffffffffffffffffffff1673ffffffffffffffffffffffffffffffffffffffff168152602001908152602001600020600701600081548092919060010191905055600381101515611b7857fe5b0160006101000a81548173ffffffffffffffffffffffffffffffffffffffff021916908373ffffffffffffffffffffffffffffffffffffffff1602179055508173ffffffffffffffffffffffffffffffffffffffff163373ffffffffffffffffffffffffffffffffffffffff167fbfe96fc3dab10acb5699297ced34bfdf5fbc7a65b3e04557be5b74a90f2f15c66000808673ffffffffffffffffffffffffffffffffffffffff1673ffffffffffffffffffffffffffffffffffffffff168152602001908152602001600020600701546000808773ffffffffffffffffffffffffffffffffffffffff1673ffffffffffffffffffffffffffffffffffffffff16815260200190815260200160002060040160405180806020018481526020018360038015611cf1576020028201915b8160009054906101000a900473ffffffffffffffffffffffffffffffffffffffff1673ffffffffffffffffffffffffffffffffffffffff1681526020019060010190808311611ca7575b5050828103825260218152602001807f5665726966696572204164647265737320616464656420746f2061727261795b81526020017f5d00000000000000000000000000000000000000000000000000000000000000815250604001935050505060405180910390a3606060405190810160405280602181526020017f5665726966696572204164647265737320616464656420746f2061727261795b81526020017f5d0000000000000000000000000000000000000000000000000000000000000081525090505b919050565b6060806060806000808673ffffffffffffffffffffffffffffffffffffffff1673ffffffffffffffffffffffffffffffffffffffff1681526020019081526020016000206000016000808773ffffffffffffffffffffffffffffffffffffffff1673ffffffffffffffffffffffffffffffffffffffff1681526020019081526020016000206001016000808873ffffffffffffffffffffffffffffffffffffffff1673ffffffffffffffffffffffffffffffffffffffff1681526020019081526020016000206002016000808973ffffffffffffffffffffffffffffffffffffffff1673ffffffffffffffffffffffffffffffffffffffff168152602001908152602001600020600301838054600181600116156101000203166002900480601f016020809104026020016040519081016040528092919081815260200182805460018160011615610100020316600290048015611f5e5780601f10611f3357610100808354040283529160200191611f5e565b820191906000526020600020905b815481529060010190602001808311611f4157829003601f168201915b50505050509350828054600181600116156101000203166002900480601f016020809104026020016040519081016040528092919081815260200182805460018160011615610100020316600290048015611ffa5780601f10611fcf57610100808354040283529160200191611ffa565b820191906000526020600020905b815481529060010190602001808311611fdd57829003601f168201915b50505050509250818054600181600116156101000203166002900480601f0160208091040260200160405190810160405280929190818152602001828054600181600116156101000203166002900480156120965780601f1061206b57610100808354040283529160200191612096565b820191906000526020600020905b81548152906001019060200180831161207957829003601f168201915b50505050509150808054600181600116156101000203166002900480601f0160208091040260200160405190810160405280929190818152602001828054600181600116156101000203166002900480156121325780601f1061210757610100808354040283529160200191612132565b820191906000526020600020905b81548152906001019060200180831161211557829003601f168201915b5050505050905093509350935093509193509193565b60068181548110151561215757fe5b906000526020600020016000915054906101000a900473ffffffffffffffffffffffffffffffffffffffff1681565b600060011515600160003373ffffffffffffffffffffffffffffffffffffffff1673ffffffffffffffffffffffffffffffffffffffff16815260200190815260200160002060009054906101000a900460ff16151514156121ea57600090506123fe565b60011515600560003373ffffffffffffffffffffffffffffffffffffffff1673ffffffffffffffffffffffffffffffffffffffff16815260200190815260200160002060009054906101000a900460ff161515141561224c57600090506123fe565b60008060003373ffffffffffffffffffffffffffffffffffffffff1673ffffffffffffffffffffffffffffffffffffffff1681526020019081526020016000209050858160000190805190602001906122a69291906128e9565b50848160010190805190602001906122bf9291906128e9565b50838160020190805190602001906122d89291906128e9565b50828160030190805190602001906122f19291906128e9565b506000816007018190555060023390806001815401808255809150509060018203906000526020600020016000909192909190916101000a81548173ffffffffffffffffffffffffffffffffffffffff021916908373ffffffffffffffffffffffffffffffffffffffff1602179055505060018060003373ffffffffffffffffffffffffffffffffffffffff1673ffffffffffffffffffffffffffffffffffffffff16815260200190815260200160002060006101000a81548160ff02191690831515021790555060038490806001815401808255809150509060018203906000526020600020016000909192909190915090805190602001906123f69291906128e9565b505060019150505b949350505050565b60028181548110151561241557fe5b906000526020600020016000915054906101000a900473ffffffffffffffffffffffffffffffffffffffff1681565b60038181548110151561245357fe5b906000526020600020016000915090508054600181600116156101000203166002900480601f0160208091040260200160405190810160405280929190818152602001828054600181600116156101000203166002900480156124f75780601f106124cc576101008083540402835291602001916124f7565b820191906000526020600020905b8154815290600101906020018083116124da57829003601f168201915b505050505081565b606080606080600460008673ffffffffffffffffffffffffffffffffffffffff1673ffffffffffffffffffffffffffffffffffffffff168152602001908152602001600020600001600460008773ffffffffffffffffffffffffffffffffffffffff1673ffffffffffffffffffffffffffffffffffffffff168152602001908152602001600020600101600460008873ffffffffffffffffffffffffffffffffffffffff1673ffffffffffffffffffffffffffffffffffffffff168152602001908152602001600020600201600460008973ffffffffffffffffffffffffffffffffffffffff1673ffffffffffffffffffffffffffffffffffffffff168152602001908152602001600020600301838054600181600116156101000203166002900480601f0160208091040260200160405190810160405280929190818152602001828054600181600116156101000203166002900480156126a25780601f10612677576101008083540402835291602001916126a2565b820191906000526020600020905b81548152906001019060200180831161268557829003601f168201915b50505050509350828054600181600116156101000203166002900480601f01602080910402602001604051908101604052809291908181526020018280546001816001161561010002031660029004801561273e5780601f106127135761010080835404028352916020019161273e565b820191906000526020600020905b81548152906001019060200180831161272157829003601f168201915b50505050509250818054600181600116156101000203166002900480601f0160208091040260200160405190810160405280929190818152602001828054600181600116156101000203166002900480156127da5780601f106127af576101008083540402835291602001916127da565b820191906000526020600020905b8154815290600101906020018083116127bd57829003601f168201915b50505050509150808054600181600116156101000203166002900480601f0160208091040260200160405190810160405280929190818152602001828054600181600116156101000203166002900480156128765780601f1061284b57610100808354040283529160200191612876565b820191906000526020600020905b81548152906001019060200180831161285957829003601f168201915b5050505050905093509350935093509193509193565b50805460018160011615610100020316600290046000825580601f106128b257506128d1565b601f0160209004906000526020600020908101906128d09190612969565b5b50565b50600081556001016000815560010160009055565b828054600181600116156101000203166002900490600052602060002090601f016020900481019282601f1061292a57805160ff1916838001178555612958565b82800160010185558215612958579182015b8281111561295757825182559160200191906001019061293c565b5b5090506129659190612969565b5090565b61298b91905b8082111561298757600081600090555060010161296f565b5090565b9056fea165627a7a7230582094d1381ee5a30e4759ce57a403fdb98b847622d98af70ad2d4881a26152b28c40029",
  "source": "pragma solidity ^0.5.0;\r\n\r\ncontract Main {\r\n\r\n    struct Student{\r\n        string usn;\r\n        string name;\r\n        string certId;\r\n        string college;\r\n        address[3] verifier;\r\n        uint count;\r\n    }\r\n    mapping(address => Student) students;\r\n    mapping(address => bool) studCheck;\r\n    event Check(address indexed _from,address indexed _to, string certId, uint count, address[3] verify);\r\n    address[] public studentacc;\r\n    string[] public cerificateHash;\r\n    \r\n   struct Teacher{\r\n       string name;\r\n       string id;\r\n       string post;\r\n       string domain;\r\n   }\r\n   mapping (address => Teacher) teachers;\r\n   mapping(address => bool) teachCheck;\r\n   address[] public teacheracc;\r\n   \r\n    function setStudent(string memory u, string memory n, string memory cer, string memory coll)  public returns (bool) {\r\n        if(studCheck[msg.sender] == true) return false;\r\n        \r\n        if(teachCheck[msg.sender] == true) return false;\r\n        \r\n        Student storage student = students[msg.sender];\r\n        student.usn = u;\r\n        student.name = n;\r\n        student.certId = cer;\r\n        student.college = coll;\r\n        student.count = 0;\r\n        studentacc.push(msg.sender);\r\n        studCheck[msg.sender] = true;\r\n        cerificateHash.push(cer);\r\n        return true;\r\n    }\r\n    function getStudent(address ins) view public returns (string memory, string memory, string memory, string memory){\r\n        return (students[ins].usn, students[ins].name, students[ins].certId, students[ins].college);\r\n    }\r\n    function getStudentAddress() view public returns (address[] memory)  {\r\n        return studentacc;\r\n    }\r\n\r\n   function setTeacher(string memory n, string memory i,string memory d, string memory dom ) public returns (bool) {\r\n       \r\n        if(teachCheck[msg.sender]==true) return false;\r\n        \r\n        if(studCheck[msg.sender] == true) return false;\r\n        Teacher storage teacher = teachers[msg.sender];\r\n        teacher.name = n;\r\n        teacher.id = i;\r\n        teacher.post = d;\r\n        teacher.domain = dom;\r\n        teacheracc.push(msg.sender);\r\n        teachCheck[msg.sender] = true;\r\n        return true;\r\n   }\r\n   function getTeacherAddress() view public returns (address[] memory)  {\r\n        return teacheracc;\r\n    }\r\n\r\n    function getTeacher(address ins) view public returns (string memory, string memory, string memory, string memory) {\r\n        return (teachers[ins].name, teachers[ins].id, teachers[ins].post, teachers[ins].domain);\r\n    }\r\n    function destroy (address addr) public {\r\n        //require(exists(msg.sender));\r\n        delete students[addr];\r\n        //emit UserDestroyed(msg.sender);\r\n  }\r\n    function verify(address studAdd) payable public returns(string memory){\r\n        //if teacher is a valid person in the network\r\n        \r\n        if(teachCheck[msg.sender]==false){\r\n            emit Check(msg.sender, studAdd, \"Teacher Not in Network: Invalid Address\",students[studAdd].count, students[studAdd].verifier);\r\n            return \"Invalid address\";\r\n        }\r\n        //if the Certificate address is valid in the network\r\n        if(studCheck[studAdd] == false){\r\n            emit Check(msg.sender, studAdd, \"Certificate Not in Network: Invalid Address\",students[studAdd].count, students[studAdd].verifier);\r\n            return \"Invalid address\";\r\n        }\r\n        //if the certificate to be verified is added to the network by any student or not\r\n        //Checking if the cerificate is verified by 3 teachers before\r\n        if(students[studAdd].count==3){\r\n            emit Check(msg.sender, studAdd, \"Verified Certificate\",students[studAdd].count, students[studAdd].verifier);\r\n            return \"Verififed Certificate\";\r\n        }\r\n        //For loop is to check if the certificate is verified by teacher before...\r\n        for (uint i=0; i<3; i++){\r\n            if(msg.sender == students[studAdd].verifier[i]){\r\n                emit Check(msg.sender,studAdd, \"Certificated Can be verified only Once...\",students[studAdd].count, students[studAdd].verifier);\r\n                return \"Certificated can be verified only Once\";\r\n            }\r\n        }\r\n        // If the certificate is not verified by the teacher then it verifies and the teacher address gets added to the student verifier array\r\n          students[studAdd].verifier[students[studAdd].count++] = msg.sender; \r\n          emit Check(msg.sender, studAdd, \"Verifier Address added to array[]\" ,students[studAdd].count, students[studAdd].verifier);\r\n         return \"Verifier Address added to array[]\";\r\n    }\r\n}",
  "sourcePath": "D:/Final_Year_Project/contracts/Main.sol",
  "compiler": {
    "name": "solc",
    "version": "0.5.0+commit.1d4f565a.Emscripten.clang"
  },
  "schemaVersion": "3.0.1",
  "updatedAt": "2020-05-03T10:37:01.312Z",
  "devdoc": {
    "methods": {}
  },
  "userdoc": {
    "methods": {}
  }
}