{
  "contractName": "Main",
  "abi": [
    {
      "constant": true,
      "inputs": [
        {
          "name": "",
          "type": "uint256"
        }
      ],
      "name": "teacheracc",
      "outputs": [
        {
          "name": "",
          "type": "address"
        }
      ],
      "payable": false,
      "stateMutability": "view",
      "type": "function",
      "signature": "0x7024974d"
    },
    {
      "constant": true,
      "inputs": [
        {
          "name": "",
          "type": "uint256"
        }
      ],
      "name": "studentacc",
      "outputs": [
        {
          "name": "",
          "type": "address"
        }
      ],
      "payable": false,
      "stateMutability": "view",
      "type": "function",
      "signature": "0xaf4fda7e"
    },
    {
      "constant": true,
      "inputs": [
        {
          "name": "",
          "type": "uint256"
        }
      ],
      "name": "cerificateHash",
      "outputs": [
        {
          "name": "",
          "type": "string"
        }
      ],
      "payable": false,
      "stateMutability": "view",
      "type": "function",
      "signature": "0xc2567e45"
    },
    {
      "anonymous": false,
      "inputs": [
        {
          "indexed": true,
          "name": "_from",
          "type": "address"
        },
        {
          "indexed": true,
          "name": "_to",
          "type": "address"
        },
        {
          "indexed": false,
          "name": "certId",
          "type": "string"
        },
        {
          "indexed": false,
          "name": "count",
          "type": "uint256"
        },
        {
          "indexed": false,
          "name": "verify",
          "type": "address[3]"
        }
      ],
      "name": "Check",
      "type": "event",
      "signature": "0xbfe96fc3dab10acb5699297ced34bfdf5fbc7a65b3e04557be5b74a90f2f15c6"
    },
    {
      "constant": false,
      "inputs": [
        {
          "name": "u",
          "type": "string"
        },
        {
          "name": "n",
          "type": "string"
        },
        {
          "name": "cer",
          "type": "string"
        },
        {
          "name": "coll",
          "type": "string"
        }
      ],
      "name": "setStudent",
      "outputs": [
        {
          "name": "",
          "type": "bool"
        }
      ],
      "payable": false,
      "stateMutability": "nonpayable",
      "type": "function",
      "signature": "0x86186998"
    },
    {
      "constant": true,
      "inputs": [
        {
          "name": "ins",
          "type": "address"
        }
      ],
      "name": "getStudent",
      "outputs": [
        {
          "name": "",
          "type": "string"
        },
        {
          "name": "",
          "type": "string"
        },
        {
          "name": "",
          "type": "string"
        },
        {
          "name": "",
          "type": "string"
        }
      ],
      "payable": false,
      "stateMutability": "view",
      "type": "function",
      "signature": "0x6b7b44d7"
    },
    {
      "constant": true,
      "inputs": [],
      "name": "getStudentAddress",
      "outputs": [
        {
          "name": "",
          "type": "address[]"
        }
      ],
      "payable": false,
      "stateMutability": "view",
      "type": "function",
      "signature": "0x3c732815"
    },
    {
      "constant": false,
      "inputs": [
        {
          "name": "n",
          "type": "string"
        },
        {
          "name": "i",
          "type": "string"
        },
        {
          "name": "d",
          "type": "string"
        }
      ],
      "name": "setTeacher",
      "outputs": [
        {
          "name": "",
          "type": "bool"
        }
      ],
      "payable": false,
      "stateMutability": "nonpayable",
      "type": "function",
      "signature": "0xf602f740"
    },
    {
      "constant": true,
      "inputs": [],
      "name": "getTeacherAddress",
      "outputs": [
        {
          "name": "",
          "type": "address[]"
        }
      ],
      "payable": false,
      "stateMutability": "view",
      "type": "function",
      "signature": "0x3650d11b"
    },
    {
      "constant": true,
      "inputs": [
        {
          "name": "ins",
          "type": "address"
        }
      ],
      "name": "getTeacher",
      "outputs": [
        {
          "name": "",
          "type": "string"
        },
        {
          "name": "",
          "type": "string"
        },
        {
          "name": "",
          "type": "string"
        }
      ],
      "payable": false,
      "stateMutability": "view",
      "type": "function",
      "signature": "0xfb4326fa"
    },
    {
      "constant": false,
      "inputs": [
        {
          "name": "addr",
          "type": "address"
        }
      ],
      "name": "destroy",
      "outputs": [],
      "payable": false,
      "stateMutability": "nonpayable",
      "type": "function",
      "signature": "0x00f55d9d"
    },
    {
      "constant": false,
      "inputs": [
        {
          "name": "studAdd",
          "type": "address"
        }
      ],
      "name": "verify",
      "outputs": [
        {
          "name": "",
          "type": "string"
        }
      ],
      "payable": true,
      "stateMutability": "payable",
      "type": "function",
      "signature": "0x63a9c3d7"
    }
  ],
  "bytecode": "0x608060405234801561001057600080fd5b506127bc806100206000396000f3fe6080604052600436106100ae576000357c0100000000000000000000000000000000000000000000000000000000900463ffffffff168062f55d9d146100b35780633650d11b146101045780633c7328151461017057806363a9c3d7146101dc5780636b7b44d7146102995780637024974d146104a75780638618699814610522578063af4fda7e146107c7578063c2567e4514610842578063f602f740146108f6578063fb4326fa14610b04575b600080fd5b3480156100bf57600080fd5b50610102600480360360208110156100d657600080fd5b81019080803573ffffffffffffffffffffffffffffffffffffffff169060200190929190505050610ca6565b005b34801561011057600080fd5b50610119610d42565b6040518080602001828103825283818151815260200191508051906020019060200280838360005b8381101561015c578082015181840152602081019050610141565b505050509050019250505060405180910390f35b34801561017c57600080fd5b50610185610dd0565b6040518080602001828103825283818151815260200191508051906020019060200280838360005b838110156101c85780820151818401526020810190506101ad565b505050509050019250505060405180910390f35b61021e600480360360208110156101f257600080fd5b81019080803573ffffffffffffffffffffffffffffffffffffffff169060200190929190505050610e5e565b6040518080602001828103825283818151815260200191508051906020019080838360005b8381101561025e578082015181840152602081019050610243565b50505050905090810190601f16801561028b5780820380516001836020036101000a031916815260200191505b509250505060405180910390f35b3480156102a557600080fd5b506102e8600480360360208110156102bc57600080fd5b81019080803573ffffffffffffffffffffffffffffffffffffffff169060200190929190505050611a83565b6040518080602001806020018060200180602001858103855289818151815260200191508051906020019080838360005b83811015610334578082015181840152602081019050610319565b50505050905090810190601f1680156103615780820380516001836020036101000a031916815260200191505b50858103845288818151815260200191508051906020019080838360005b8381101561039a57808201518184015260208101905061037f565b50505050905090810190601f1680156103c75780820380516001836020036101000a031916815260200191505b50858103835287818151815260200191508051906020019080838360005b838110156104005780820151818401526020810190506103e5565b50505050905090810190601f16801561042d5780820380516001836020036101000a031916815260200191505b50858103825286818151815260200191508051906020019080838360005b8381101561046657808201518184015260208101905061044b565b50505050905090810190601f1680156104935780820380516001836020036101000a031916815260200191505b509850505050505050505060405180910390f35b3480156104b357600080fd5b506104e0600480360360208110156104ca57600080fd5b8101908080359060200190929190505050611e0c565b604051808273ffffffffffffffffffffffffffffffffffffffff1673ffffffffffffffffffffffffffffffffffffffff16815260200191505060405180910390f35b34801561052e57600080fd5b506107ad6004803603608081101561054557600080fd5b810190808035906020019064010000000081111561056257600080fd5b82018360208201111561057457600080fd5b8035906020019184600183028401116401000000008311171561059657600080fd5b91908080601f016020809104026020016040519081016040528093929190818152602001838380828437600081840152601f19601f820116905080830192505050505050509192919290803590602001906401000000008111156105f957600080fd5b82018360208201111561060b57600080fd5b8035906020019184600183028401116401000000008311171561062d57600080fd5b91908080601f016020809104026020016040519081016040528093929190818152602001838380828437600081840152601f19601f8201169050808301925050505050505091929192908035906020019064010000000081111561069057600080fd5b8201836020820111156106a257600080fd5b803590602001918460018302840111640100000000831117156106c457600080fd5b91908080601f016020809104026020016040519081016040528093929190818152602001838380828437600081840152601f19601f8201169050808301925050505050505091929192908035906020019064010000000081111561072757600080fd5b82018360208201111561073957600080fd5b8035906020019184600183028401116401000000008311171561075b57600080fd5b91908080601f016020809104026020016040519081016040528093929190818152602001838380828437600081840152601f19601f820116905080830192505050505050509192919290505050611e4a565b604051808215151515815260200191505060405180910390f35b3480156107d357600080fd5b50610800600480360360208110156107ea57600080fd5b81019080803590602001909291905050506120ca565b604051808273ffffffffffffffffffffffffffffffffffffffff1673ffffffffffffffffffffffffffffffffffffffff16815260200191505060405180910390f35b34801561084e57600080fd5b5061087b6004803603602081101561086557600080fd5b8101908080359060200190929190505050612108565b6040518080602001828103825283818151815260200191508051906020019080838360005b838110156108bb5780820151818401526020810190506108a0565b50505050905090810190601f1680156108e85780820380516001836020036101000a031916815260200191505b509250505060405180910390f35b34801561090257600080fd5b50610aea6004803603606081101561091957600080fd5b810190808035906020019064010000000081111561093657600080fd5b82018360208201111561094857600080fd5b8035906020019184600183028401116401000000008311171561096a57600080fd5b91908080601f016020809104026020016040519081016040528093929190818152602001838380828437600081840152601f19601f820116905080830192505050505050509192919290803590602001906401000000008111156109cd57600080fd5b8201836020820111156109df57600080fd5b80359060200191846001830284011164010000000083111715610a0157600080fd5b91908080601f016020809104026020016040519081016040528093929190818152602001838380828437600081840152601f19601f82011690508083019250505050505050919291929080359060200190640100000000811115610a6457600080fd5b820183602082011115610a7657600080fd5b80359060200191846001830284011164010000000083111715610a9857600080fd5b91908080601f016020809104026020016040519081016040528093929190818152602001838380828437600081840152601f19601f8201169050808301925050505050505091929192905050506121c3565b604051808215151515815260200191505060405180910390f35b348015610b1057600080fd5b50610b5360048036036020811015610b2757600080fd5b81019080803573ffffffffffffffffffffffffffffffffffffffff1690602001909291905050506123e2565b60405180806020018060200180602001848103845287818151815260200191508051906020019080838360005b83811015610b9b578082015181840152602081019050610b80565b50505050905090810190601f168015610bc85780820380516001836020036101000a031916815260200191505b50848103835286818151815260200191508051906020019080838360005b83811015610c01578082015181840152602081019050610be6565b50505050905090810190601f168015610c2e5780820380516001836020036101000a031916815260200191505b50848103825285818151815260200191508051906020019080838360005b83811015610c67578082015181840152602081019050610c4c565b50505050905090810190601f168015610c945780820380516001836020036101000a031916815260200191505b50965050505050505060405180910390f35b6000808273ffffffffffffffffffffffffffffffffffffffff1673ffffffffffffffffffffffffffffffffffffffff16815260200190815260200160002060008082016000610cf5919061268e565b600182016000610d05919061268e565b600282016000610d15919061268e565b600382016000610d25919061268e565b600482016000610d3591906126d6565b6007820160009055505050565b60606006805480602002602001604051908101604052809291908181526020018280548015610dc657602002820191906000526020600020905b8160009054906101000a900473ffffffffffffffffffffffffffffffffffffffff1673ffffffffffffffffffffffffffffffffffffffff1681526020019060010190808311610d7c575b5050505050905090565b60606002805480602002602001604051908101604052809291908181526020018280548015610e5457602002820191906000526020600020905b8160009054906101000a900473ffffffffffffffffffffffffffffffffffffffff1673ffffffffffffffffffffffffffffffffffffffff1681526020019060010190808311610e0a575b5050505050905090565b606060001515600560003373ffffffffffffffffffffffffffffffffffffffff1673ffffffffffffffffffffffffffffffffffffffff16815260200190815260200160002060009054906101000a900460ff1615151415611099578173ffffffffffffffffffffffffffffffffffffffff163373ffffffffffffffffffffffffffffffffffffffff167fbfe96fc3dab10acb5699297ced34bfdf5fbc7a65b3e04557be5b74a90f2f15c66000808673ffffffffffffffffffffffffffffffffffffffff1673ffffffffffffffffffffffffffffffffffffffff168152602001908152602001600020600701546000808773ffffffffffffffffffffffffffffffffffffffff1673ffffffffffffffffffffffffffffffffffffffff16815260200190815260200160002060040160405180806020018481526020018360038015610ff3576020028201915b8160009054906101000a900473ffffffffffffffffffffffffffffffffffffffff1673ffffffffffffffffffffffffffffffffffffffff1681526020019060010190808311610fa9575b5050828103825260278152602001807f54656163686572204e6f7420696e204e6574776f726b3a20496e76616c69642081526020017f4164647265737300000000000000000000000000000000000000000000000000815250604001935050505060405180910390a36040805190810160405280600f81526020017f496e76616c6964206164647265737300000000000000000000000000000000008152509050611a7e565b60001515600160008473ffffffffffffffffffffffffffffffffffffffff1673ffffffffffffffffffffffffffffffffffffffff16815260200190815260200160002060009054906101000a900460ff16151514156112d2578173ffffffffffffffffffffffffffffffffffffffff163373ffffffffffffffffffffffffffffffffffffffff167fbfe96fc3dab10acb5699297ced34bfdf5fbc7a65b3e04557be5b74a90f2f15c66000808673ffffffffffffffffffffffffffffffffffffffff1673ffffffffffffffffffffffffffffffffffffffff168152602001908152602001600020600701546000808773ffffffffffffffffffffffffffffffffffffffff1673ffffffffffffffffffffffffffffffffffffffff1681526020019081526020016000206004016040518080602001848152602001836003801561122c576020028201915b8160009054906101000a900473ffffffffffffffffffffffffffffffffffffffff1673ffffffffffffffffffffffffffffffffffffffff16815260200190600101908083116111e2575b50508281038252602b8152602001807f4365727469666963617465204e6f7420696e204e6574776f726b3a20496e766181526020017f6c69642041646472657373000000000000000000000000000000000000000000815250604001935050505060405180910390a36040805190810160405280600f81526020017f496e76616c6964206164647265737300000000000000000000000000000000008152509050611a7e565b60036000808473ffffffffffffffffffffffffffffffffffffffff1673ffffffffffffffffffffffffffffffffffffffff1681526020019081526020016000206007015414156114d6578173ffffffffffffffffffffffffffffffffffffffff163373ffffffffffffffffffffffffffffffffffffffff167fbfe96fc3dab10acb5699297ced34bfdf5fbc7a65b3e04557be5b74a90f2f15c66000808673ffffffffffffffffffffffffffffffffffffffff1673ffffffffffffffffffffffffffffffffffffffff168152602001908152602001600020600701546000808773ffffffffffffffffffffffffffffffffffffffff1673ffffffffffffffffffffffffffffffffffffffff16815260200190815260200160002060040160405180806020018481526020018360038015611456576020028201915b8160009054906101000a900473ffffffffffffffffffffffffffffffffffffffff1673ffffffffffffffffffffffffffffffffffffffff168152602001906001019080831161140c575b5050828103825260148152602001807f5665726966696564204365727469666963617465000000000000000000000000815250602001935050505060405180910390a36040805190810160405280601581526020017f56657269666966656420436572746966696361746500000000000000000000008152509050611a7e565b60008090505b600381101561179d576000808473ffffffffffffffffffffffffffffffffffffffff1673ffffffffffffffffffffffffffffffffffffffff1681526020019081526020016000206004018160038110151561153357fe5b0160009054906101000a900473ffffffffffffffffffffffffffffffffffffffff1673ffffffffffffffffffffffffffffffffffffffff163373ffffffffffffffffffffffffffffffffffffffff161415611790578273ffffffffffffffffffffffffffffffffffffffff163373ffffffffffffffffffffffffffffffffffffffff167fbfe96fc3dab10acb5699297ced34bfdf5fbc7a65b3e04557be5b74a90f2f15c66000808773ffffffffffffffffffffffffffffffffffffffff1673ffffffffffffffffffffffffffffffffffffffff168152602001908152602001600020600701546000808873ffffffffffffffffffffffffffffffffffffffff1673ffffffffffffffffffffffffffffffffffffffff168152602001908152602001600020600401604051808060200184815260200183600380156116c2576020028201915b8160009054906101000a900473ffffffffffffffffffffffffffffffffffffffff1673ffffffffffffffffffffffffffffffffffffffff1681526020019060010190808311611678575b5050828103825260298152602001807f4365727469666963617465642043616e206265207665726966696564206f6e6c81526020017f79204f6e63652e2e2e0000000000000000000000000000000000000000000000815250604001935050505060405180910390a3606060405190810160405280602681526020017f4365727469666963617465642063616e206265207665726966696564206f6e6c81526020017f79204f6e63650000000000000000000000000000000000000000000000000000815250915050611a7e565b80806001019150506114dc565b50336000808473ffffffffffffffffffffffffffffffffffffffff1673ffffffffffffffffffffffffffffffffffffffff1681526020019081526020016000206004016000808573ffffffffffffffffffffffffffffffffffffffff1673ffffffffffffffffffffffffffffffffffffffff16815260200190815260200160002060070160008154809291906001019190505560038110151561183c57fe5b0160006101000a81548173ffffffffffffffffffffffffffffffffffffffff021916908373ffffffffffffffffffffffffffffffffffffffff1602179055508173ffffffffffffffffffffffffffffffffffffffff163373ffffffffffffffffffffffffffffffffffffffff167fbfe96fc3dab10acb5699297ced34bfdf5fbc7a65b3e04557be5b74a90f2f15c66000808673ffffffffffffffffffffffffffffffffffffffff1673ffffffffffffffffffffffffffffffffffffffff168152602001908152602001600020600701546000808773ffffffffffffffffffffffffffffffffffffffff1673ffffffffffffffffffffffffffffffffffffffff168152602001908152602001600020600401604051808060200184815260200183600380156119b5576020028201915b8160009054906101000a900473ffffffffffffffffffffffffffffffffffffffff1673ffffffffffffffffffffffffffffffffffffffff168152602001906001019080831161196b575b5050828103825260218152602001807f5665726966696572204164647265737320616464656420746f2061727261795b81526020017f5d00000000000000000000000000000000000000000000000000000000000000815250604001935050505060405180910390a3606060405190810160405280602181526020017f5665726966696572204164647265737320616464656420746f2061727261795b81526020017f5d0000000000000000000000000000000000000000000000000000000000000081525090505b919050565b6060806060806000808673ffffffffffffffffffffffffffffffffffffffff1673ffffffffffffffffffffffffffffffffffffffff1681526020019081526020016000206000016000808773ffffffffffffffffffffffffffffffffffffffff1673ffffffffffffffffffffffffffffffffffffffff1681526020019081526020016000206001016000808873ffffffffffffffffffffffffffffffffffffffff1673ffffffffffffffffffffffffffffffffffffffff1681526020019081526020016000206002016000808973ffffffffffffffffffffffffffffffffffffffff1673ffffffffffffffffffffffffffffffffffffffff168152602001908152602001600020600301838054600181600116156101000203166002900480601f016020809104026020016040519081016040528092919081815260200182805460018160011615610100020316600290048015611c225780601f10611bf757610100808354040283529160200191611c22565b820191906000526020600020905b815481529060010190602001808311611c0557829003601f168201915b50505050509350828054600181600116156101000203166002900480601f016020809104026020016040519081016040528092919081815260200182805460018160011615610100020316600290048015611cbe5780601f10611c9357610100808354040283529160200191611cbe565b820191906000526020600020905b815481529060010190602001808311611ca157829003601f168201915b50505050509250818054600181600116156101000203166002900480601f016020809104026020016040519081016040528092919081815260200182805460018160011615610100020316600290048015611d5a5780601f10611d2f57610100808354040283529160200191611d5a565b820191906000526020600020905b815481529060010190602001808311611d3d57829003601f168201915b50505050509150808054600181600116156101000203166002900480601f016020809104026020016040519081016040528092919081815260200182805460018160011615610100020316600290048015611df65780601f10611dcb57610100808354040283529160200191611df6565b820191906000526020600020905b815481529060010190602001808311611dd957829003601f168201915b5050505050905093509350935093509193509193565b600681815481101515611e1b57fe5b906000526020600020016000915054906101000a900473ffffffffffffffffffffffffffffffffffffffff1681565b600060011515600160003373ffffffffffffffffffffffffffffffffffffffff1673ffffffffffffffffffffffffffffffffffffffff16815260200190815260200160002060009054906101000a900460ff1615151415611eae57600090506120c2565b60011515600560003373ffffffffffffffffffffffffffffffffffffffff1673ffffffffffffffffffffffffffffffffffffffff16815260200190815260200160002060009054906101000a900460ff1615151415611f1057600090506120c2565b60008060003373ffffffffffffffffffffffffffffffffffffffff1673ffffffffffffffffffffffffffffffffffffffff168152602001908152602001600020905085816000019080519060200190611f6a9291906126eb565b5084816001019080519060200190611f839291906126eb565b5083816002019080519060200190611f9c9291906126eb565b5082816003019080519060200190611fb59291906126eb565b506000816007018190555060023390806001815401808255809150509060018203906000526020600020016000909192909190916101000a81548173ffffffffffffffffffffffffffffffffffffffff021916908373ffffffffffffffffffffffffffffffffffffffff1602179055505060018060003373ffffffffffffffffffffffffffffffffffffffff1673ffffffffffffffffffffffffffffffffffffffff16815260200190815260200160002060006101000a81548160ff02191690831515021790555060038490806001815401808255809150509060018203906000526020600020016000909192909190915090805190602001906120ba9291906126eb565b505060019150505b949350505050565b6002818154811015156120d957fe5b906000526020600020016000915054906101000a900473ffffffffffffffffffffffffffffffffffffffff1681565b60038181548110151561211757fe5b906000526020600020016000915090508054600181600116156101000203166002900480601f0160208091040260200160405190810160405280929190818152602001828054600181600116156101000203166002900480156121bb5780601f10612190576101008083540402835291602001916121bb565b820191906000526020600020905b81548152906001019060200180831161219e57829003601f168201915b505050505081565b600060011515600560003373ffffffffffffffffffffffffffffffffffffffff1673ffffffffffffffffffffffffffffffffffffffff16815260200190815260200160002060009054906101000a900460ff161515141561222757600090506123db565b60011515600160003373ffffffffffffffffffffffffffffffffffffffff1673ffffffffffffffffffffffffffffffffffffffff16815260200190815260200160002060009054906101000a900460ff161515141561228957600090506123db565b6000600460003373ffffffffffffffffffffffffffffffffffffffff1673ffffffffffffffffffffffffffffffffffffffff1681526020019081526020016000209050848160000190805190602001906122e49291906126eb565b50838160010190805190602001906122fd9291906126eb565b50828160020190805190602001906123169291906126eb565b5060063390806001815401808255809150509060018203906000526020600020016000909192909190916101000a81548173ffffffffffffffffffffffffffffffffffffffff021916908373ffffffffffffffffffffffffffffffffffffffff160217905550506001600560003373ffffffffffffffffffffffffffffffffffffffff1673ffffffffffffffffffffffffffffffffffffffff16815260200190815260200160002060006101000a81548160ff02191690831515021790555060019150505b9392505050565b6060806060600460008573ffffffffffffffffffffffffffffffffffffffff1673ffffffffffffffffffffffffffffffffffffffff168152602001908152602001600020600001600460008673ffffffffffffffffffffffffffffffffffffffff1673ffffffffffffffffffffffffffffffffffffffff168152602001908152602001600020600101600460008773ffffffffffffffffffffffffffffffffffffffff1673ffffffffffffffffffffffffffffffffffffffff168152602001908152602001600020600201828054600181600116156101000203166002900480601f0160208091040260200160405190810160405280929190818152602001828054600181600116156101000203166002900480156125425780601f1061251757610100808354040283529160200191612542565b820191906000526020600020905b81548152906001019060200180831161252557829003601f168201915b50505050509250818054600181600116156101000203166002900480601f0160208091040260200160405190810160405280929190818152602001828054600181600116156101000203166002900480156125de5780601f106125b3576101008083540402835291602001916125de565b820191906000526020600020905b8154815290600101906020018083116125c157829003601f168201915b50505050509150808054600181600116156101000203166002900480601f01602080910402602001604051908101604052809291908181526020018280546001816001161561010002031660029004801561267a5780601f1061264f5761010080835404028352916020019161267a565b820191906000526020600020905b81548152906001019060200180831161265d57829003601f168201915b505050505090509250925092509193909250565b50805460018160011615610100020316600290046000825580601f106126b457506126d3565b601f0160209004906000526020600020908101906126d2919061276b565b5b50565b50600081556001016000815560010160009055565b828054600181600116156101000203166002900490600052602060002090601f016020900481019282601f1061272c57805160ff191683800117855561275a565b8280016001018555821561275a579182015b8281111561275957825182559160200191906001019061273e565b5b509050612767919061276b565b5090565b61278d91905b80821115612789576000816000905550600101612771565b5090565b9056fea165627a7a7230582057eb19fef7abe3c08ca072fdf2ffa907309c662d10f88023c3f47384e13026b30029",
  "source": "pragma solidity ^0.5.0;\r\n\r\ncontract Main {\r\n\r\n    struct Student{\r\n        string usn;\r\n        string name;\r\n        string certId;\r\n        string college;\r\n        address[3] verifier;\r\n        uint count;\r\n    }\r\n    mapping(address => Student) students;\r\n    mapping(address => bool) studCheck;\r\n    event Check(address indexed _from,address indexed _to, string certId, uint count, address[3] verify);\r\n    address[] public studentacc;\r\n    string[] public cerificateHash;\r\n    \r\n   struct Teacher{\r\n       string name;\r\n       string id;\r\n       string post;\r\n   }\r\n   mapping (address => Teacher) teachers;\r\n   mapping(address => bool) teachCheck;\r\n   address[] public teacheracc;\r\n   \r\n    function setStudent(string memory u, string memory n, string memory cer, string memory coll)  public returns (bool) {\r\n        if(studCheck[msg.sender] == true) return false;\r\n        \r\n        if(teachCheck[msg.sender] == true) return false;\r\n        \r\n        Student storage student = students[msg.sender];\r\n        student.usn = u;\r\n        student.name = n;\r\n        student.certId = cer;\r\n        student.college = coll;\r\n        student.count = 0;\r\n        studentacc.push(msg.sender);\r\n        studCheck[msg.sender] = true;\r\n        cerificateHash.push(cer);\r\n        return true;\r\n    }\r\n    function getStudent(address ins) view public returns (string memory, string memory, string memory, string memory){\r\n        return (students[ins].usn, students[ins].name, students[ins].certId, students[ins].college);\r\n    }\r\n    function getStudentAddress() view public returns (address[] memory)  {\r\n        return studentacc;\r\n    }\r\n\r\n   function setTeacher(string memory n, string memory i,string memory d) public returns (bool) {\r\n       \r\n        if(teachCheck[msg.sender]==true) return false;\r\n        \r\n        if(studCheck[msg.sender] == true) return false;\r\n        Teacher storage teacher = teachers[msg.sender];\r\n        teacher.name = n;\r\n        teacher.id = i;\r\n        teacher.post = d;\r\n        teacheracc.push(msg.sender);\r\n        teachCheck[msg.sender] = true;\r\n        return true;\r\n   }\r\n   function getTeacherAddress() view public returns (address[] memory)  {\r\n        return teacheracc;\r\n    }\r\n\r\n    function getTeacher(address ins) view public returns (string memory, string memory, string memory) {\r\n        return (teachers[ins].name, teachers[ins].id, teachers[ins].post);\r\n    }\r\n    function destroy (address addr) public {\r\n        //require(exists(msg.sender));\r\n        delete students[addr];\r\n        //emit UserDestroyed(msg.sender);\r\n  }\r\n    function verify(address studAdd) payable public returns(string memory){\r\n        //if teacher is a valid person in the network\r\n        \r\n        if(teachCheck[msg.sender]==false){\r\n            emit Check(msg.sender, studAdd, \"Teacher Not in Network: Invalid Address\",students[studAdd].count, students[studAdd].verifier);\r\n            return \"Invalid address\";\r\n        }\r\n        //if the Certificate address is valid in the network\r\n        if(studCheck[studAdd] == false){\r\n            emit Check(msg.sender, studAdd, \"Certificate Not in Network: Invalid Address\",students[studAdd].count, students[studAdd].verifier);\r\n            return \"Invalid address\";\r\n        }\r\n        //if the certificate to be verified is added to the network by any student or not\r\n        //Checking if the cerificate is verified by 3 teachers before\r\n        if(students[studAdd].count==3){\r\n            emit Check(msg.sender, studAdd, \"Verified Certificate\",students[studAdd].count, students[studAdd].verifier);\r\n            return \"Verififed Certificate\";\r\n        }\r\n        //For loop is to check if the certificate is verified by teacher before...\r\n        for (uint i=0; i<3; i++){\r\n            if(msg.sender == students[studAdd].verifier[i]){\r\n                emit Check(msg.sender,studAdd, \"Certificated Can be verified only Once...\",students[studAdd].count, students[studAdd].verifier);\r\n                return \"Certificated can be verified only Once\";\r\n            }\r\n        }\r\n        // If the certificate is not verified by the teacher then it verifies and the teacher address gets added to the student verifier array\r\n          students[studAdd].verifier[students[studAdd].count++] = msg.sender; \r\n          emit Check(msg.sender, studAdd, \"Verifier Address added to array[]\" ,students[studAdd].count, students[studAdd].verifier);\r\n         return \"Verifier Address added to array[]\";\r\n    }\r\n}",
  "sourcePath": "D:/Final_Year_Project/contracts/Main.sol",
  "compiler": {
    "name": "solc",
    "version": "0.5.0+commit.1d4f565a.Emscripten.clang"
  },
  "schemaVersion": "3.0.1",
  "updatedAt": "2020-05-03T09:03:29.156Z",
  "devdoc": {
    "methods": {}
  },
  "userdoc": {
    "methods": {}
  }
}