{
  "contractName": "Main",
  "abi": [
    {
      "constant": true,
      "inputs": [
        {
          "name": "",
          "type": "uint256"
        }
      ],
      "name": "teacheracc",
      "outputs": [
        {
          "name": "",
          "type": "address"
        }
      ],
      "payable": false,
      "stateMutability": "view",
      "type": "function",
      "signature": "0x7024974d"
    },
    {
      "constant": true,
      "inputs": [
        {
          "name": "",
          "type": "uint256"
        }
      ],
      "name": "studentacc",
      "outputs": [
        {
          "name": "",
          "type": "address"
        }
      ],
      "payable": false,
      "stateMutability": "view",
      "type": "function",
      "signature": "0xaf4fda7e"
    },
    {
      "constant": true,
      "inputs": [
        {
          "name": "",
          "type": "uint256"
        }
      ],
      "name": "cerificateHash",
      "outputs": [
        {
          "name": "",
          "type": "string"
        }
      ],
      "payable": false,
      "stateMutability": "view",
      "type": "function",
      "signature": "0xc2567e45"
    },
    {
      "anonymous": false,
      "inputs": [
        {
          "indexed": true,
          "name": "_from",
          "type": "address"
        },
        {
          "indexed": true,
          "name": "_to",
          "type": "address"
        },
        {
          "indexed": false,
          "name": "certId",
          "type": "string"
        },
        {
          "indexed": false,
          "name": "count",
          "type": "uint256"
        },
        {
          "indexed": false,
          "name": "verify",
          "type": "address[3]"
        }
      ],
      "name": "Check",
      "type": "event",
      "signature": "0xbfe96fc3dab10acb5699297ced34bfdf5fbc7a65b3e04557be5b74a90f2f15c6"
    },
    {
      "constant": false,
      "inputs": [
        {
          "name": "u",
          "type": "uint256"
        },
        {
          "name": "n",
          "type": "string"
        },
        {
          "name": "cer",
          "type": "string"
        },
        {
          "name": "coll",
          "type": "string"
        }
      ],
      "name": "setStudent",
      "outputs": [
        {
          "name": "",
          "type": "bool"
        }
      ],
      "payable": false,
      "stateMutability": "nonpayable",
      "type": "function",
      "signature": "0x984a04a5"
    },
    {
      "constant": true,
      "inputs": [
        {
          "name": "ins",
          "type": "address"
        }
      ],
      "name": "getStudent",
      "outputs": [
        {
          "name": "",
          "type": "uint256"
        },
        {
          "name": "",
          "type": "string"
        },
        {
          "name": "",
          "type": "string"
        },
        {
          "name": "",
          "type": "string"
        }
      ],
      "payable": false,
      "stateMutability": "view",
      "type": "function",
      "signature": "0x6b7b44d7"
    },
    {
      "constant": true,
      "inputs": [],
      "name": "getStudentAddress",
      "outputs": [
        {
          "name": "",
          "type": "address[]"
        }
      ],
      "payable": false,
      "stateMutability": "view",
      "type": "function",
      "signature": "0x3c732815"
    },
    {
      "constant": false,
      "inputs": [
        {
          "name": "n",
          "type": "string"
        },
        {
          "name": "i",
          "type": "uint256"
        },
        {
          "name": "d",
          "type": "string"
        }
      ],
      "name": "setTeacher",
      "outputs": [
        {
          "name": "",
          "type": "bool"
        }
      ],
      "payable": false,
      "stateMutability": "nonpayable",
      "type": "function",
      "signature": "0xc6e93f57"
    },
    {
      "constant": true,
      "inputs": [],
      "name": "getTeacherAddress",
      "outputs": [
        {
          "name": "",
          "type": "address[]"
        }
      ],
      "payable": false,
      "stateMutability": "view",
      "type": "function",
      "signature": "0x3650d11b"
    },
    {
      "constant": true,
      "inputs": [
        {
          "name": "ins",
          "type": "address"
        }
      ],
      "name": "getTeacher",
      "outputs": [
        {
          "name": "",
          "type": "string"
        },
        {
          "name": "",
          "type": "uint256"
        },
        {
          "name": "",
          "type": "string"
        }
      ],
      "payable": false,
      "stateMutability": "view",
      "type": "function",
      "signature": "0xfb4326fa"
    },
    {
      "constant": false,
      "inputs": [
        {
          "name": "studAdd",
          "type": "address"
        }
      ],
      "name": "verify",
      "outputs": [
        {
          "name": "",
          "type": "string"
        }
      ],
      "payable": true,
      "stateMutability": "payable",
      "type": "function",
      "signature": "0x63a9c3d7"
    }
  ],
  "bytecode": "0x608060405234801561001057600080fd5b50612470806100206000396000f3fe6080604052600436106100a4576000357c0100000000000000000000000000000000000000000000000000000000900463ffffffff1680633650d11b146100a95780633c7328151461011557806363a9c3d7146101815780636b7b44d71461023e5780637024974d146103e7578063984a04a514610462578063af4fda7e1461067a578063c2567e45146106f5578063c6e93f57146107a9578063fb4326fa1461092a575b600080fd5b3480156100b557600080fd5b506100be610a67565b6040518080602001828103825283818151815260200191508051906020019060200280838360005b838110156101015780820151818401526020810190506100e6565b505050509050019250505060405180910390f35b34801561012157600080fd5b5061012a610af5565b6040518080602001828103825283818151815260200191508051906020019060200280838360005b8381101561016d578082015181840152602081019050610152565b505050509050019250505060405180910390f35b6101c36004803603602081101561019757600080fd5b81019080803573ffffffffffffffffffffffffffffffffffffffff169060200190929190505050610b83565b6040518080602001828103825283818151815260200191508051906020019080838360005b838110156102035780820151818401526020810190506101e8565b50505050905090810190601f1680156102305780820380516001836020036101000a031916815260200191505b509250505060405180910390f35b34801561024a57600080fd5b5061028d6004803603602081101561026157600080fd5b81019080803573ffffffffffffffffffffffffffffffffffffffff169060200190929190505050611851565b60405180858152602001806020018060200180602001848103845287818151815260200191508051906020019080838360005b838110156102db5780820151818401526020810190506102c0565b50505050905090810190601f1680156103085780820380516001836020036101000a031916815260200191505b50848103835286818151815260200191508051906020019080838360005b83811015610341578082015181840152602081019050610326565b50505050905090810190601f16801561036e5780820380516001836020036101000a031916815260200191505b50848103825285818151815260200191508051906020019080838360005b838110156103a757808201518184015260208101905061038c565b50505050905090810190601f1680156103d45780820380516001836020036101000a031916815260200191505b5097505050505050505060405180910390f35b3480156103f357600080fd5b506104206004803603602081101561040a57600080fd5b8101908080359060200190929190505050611b40565b604051808273ffffffffffffffffffffffffffffffffffffffff1673ffffffffffffffffffffffffffffffffffffffff16815260200191505060405180910390f35b34801561046e57600080fd5b506106606004803603608081101561048557600080fd5b8101908080359060200190929190803590602001906401000000008111156104ac57600080fd5b8201836020820111156104be57600080fd5b803590602001918460018302840111640100000000831117156104e057600080fd5b91908080601f016020809104026020016040519081016040528093929190818152602001838380828437600081840152601f19601f8201169050808301925050505050505091929192908035906020019064010000000081111561054357600080fd5b82018360208201111561055557600080fd5b8035906020019184600183028401116401000000008311171561057757600080fd5b91908080601f016020809104026020016040519081016040528093929190818152602001838380828437600081840152601f19601f820116905080830192505050505050509192919290803590602001906401000000008111156105da57600080fd5b8201836020820111156105ec57600080fd5b8035906020019184600183028401116401000000008311171561060e57600080fd5b91908080601f016020809104026020016040519081016040528093929190818152602001838380828437600081840152601f19601f820116905080830192505050505050509192919290505050611b7e565b604051808215151515815260200191505060405180910390f35b34801561068657600080fd5b506106b36004803603602081101561069d57600080fd5b8101908080359060200190929190505050611e3c565b604051808273ffffffffffffffffffffffffffffffffffffffff1673ffffffffffffffffffffffffffffffffffffffff16815260200191505060405180910390f35b34801561070157600080fd5b5061072e6004803603602081101561071857600080fd5b8101908080359060200190929190505050611e7a565b6040518080602001828103825283818151815260200191508051906020019080838360005b8381101561076e578082015181840152602081019050610753565b50505050905090810190601f16801561079b5780820380516001836020036101000a031916815260200191505b509250505060405180910390f35b3480156107b557600080fd5b50610910600480360360608110156107cc57600080fd5b81019080803590602001906401000000008111156107e957600080fd5b8201836020820111156107fb57600080fd5b8035906020019184600183028401116401000000008311171561081d57600080fd5b91908080601f016020809104026020016040519081016040528093929190818152602001838380828437600081840152601f19601f820116905080830192505050505050509192919290803590602001909291908035906020019064010000000081111561088a57600080fd5b82018360208201111561089c57600080fd5b803590602001918460018302840111640100000000831117156108be57600080fd5b91908080601f016020809104026020016040519081016040528093929190818152602001838380828437600081840152601f19601f820116905080830192505050505050509192919290505050611f35565b604051808215151515815260200191505060405180910390f35b34801561093657600080fd5b506109796004803603602081101561094d57600080fd5b81019080803573ffffffffffffffffffffffffffffffffffffffff16906020019092919050505061218d565b604051808060200184815260200180602001838103835286818151815260200191508051906020019080838360005b838110156109c35780820151818401526020810190506109a8565b50505050905090810190601f1680156109f05780820380516001836020036101000a031916815260200191505b50838103825284818151815260200191508051906020019080838360005b83811015610a29578082015181840152602081019050610a0e565b50505050905090810190601f168015610a565780820380516001836020036101000a031916815260200191505b509550505050505060405180910390f35b60606004805480602002602001604051908101604052809291908181526020018280548015610aeb57602002820191906000526020600020905b8160009054906101000a900473ffffffffffffffffffffffffffffffffffffffff1673ffffffffffffffffffffffffffffffffffffffff1681526020019060010190808311610aa1575b5050505050905090565b60606001805480602002602001604051908101604052809291908181526020018280548015610b7957602002820191906000526020600020905b8160009054906101000a900473ffffffffffffffffffffffffffffffffffffffff1673ffffffffffffffffffffffffffffffffffffffff1681526020019060010190808311610b2f575b5050505050905090565b6060600080905060008090505b600480549050811015610c2457600481815481101515610bac57fe5b9060005260206000200160009054906101000a900473ffffffffffffffffffffffffffffffffffffffff1673ffffffffffffffffffffffffffffffffffffffff163373ffffffffffffffffffffffffffffffffffffffff161415610c135760019150610c24565b600091508080600101915050610b90565b506000811415610e0f578273ffffffffffffffffffffffffffffffffffffffff163373ffffffffffffffffffffffffffffffffffffffff167fbfe96fc3dab10acb5699297ced34bfdf5fbc7a65b3e04557be5b74a90f2f15c66000808773ffffffffffffffffffffffffffffffffffffffff1673ffffffffffffffffffffffffffffffffffffffff168152602001908152602001600020600701546000808873ffffffffffffffffffffffffffffffffffffffff1673ffffffffffffffffffffffffffffffffffffffff16815260200190815260200160002060040160405180806020018481526020018360038015610d68576020028201915b8160009054906101000a900473ffffffffffffffffffffffffffffffffffffffff1673ffffffffffffffffffffffffffffffffffffffff1681526020019060010190808311610d1e575b5050828103825260278152602001807f54656163686572204e6f7420696e204e6574776f726b3a20496e76616c69642081526020017f4164647265737300000000000000000000000000000000000000000000000000815250604001935050505060405180910390a36040805190810160405280600f81526020017f496e76616c69642061646472657373000000000000000000000000000000000081525091505061184c565b600080905060008090505b600180549050811015610eae57600181815481101515610e3657fe5b9060005260206000200160009054906101000a900473ffffffffffffffffffffffffffffffffffffffff1673ffffffffffffffffffffffffffffffffffffffff168573ffffffffffffffffffffffffffffffffffffffff161415610e9d5760019150610eae565b600091508080600101915050610e1a565b50600081141561109a578373ffffffffffffffffffffffffffffffffffffffff163373ffffffffffffffffffffffffffffffffffffffff167fbfe96fc3dab10acb5699297ced34bfdf5fbc7a65b3e04557be5b74a90f2f15c66000808873ffffffffffffffffffffffffffffffffffffffff1673ffffffffffffffffffffffffffffffffffffffff168152602001908152602001600020600701546000808973ffffffffffffffffffffffffffffffffffffffff1673ffffffffffffffffffffffffffffffffffffffff16815260200190815260200160002060040160405180806020018481526020018360038015610ff2576020028201915b8160009054906101000a900473ffffffffffffffffffffffffffffffffffffffff1673ffffffffffffffffffffffffffffffffffffffff1681526020019060010190808311610fa8575b50508281038252602b8152602001807f4365727469666963617465204e6f7420696e204e6574776f726b3a20496e766181526020017f6c69642041646472657373000000000000000000000000000000000000000000815250604001935050505060405180910390a36040805190810160405280600f81526020017f496e76616c6964206164647265737300000000000000000000000000000000008152509250505061184c565b60036000808673ffffffffffffffffffffffffffffffffffffffff1673ffffffffffffffffffffffffffffffffffffffff1681526020019081526020016000206007015414156112a0578373ffffffffffffffffffffffffffffffffffffffff163373ffffffffffffffffffffffffffffffffffffffff167fbfe96fc3dab10acb5699297ced34bfdf5fbc7a65b3e04557be5b74a90f2f15c66000808873ffffffffffffffffffffffffffffffffffffffff1673ffffffffffffffffffffffffffffffffffffffff168152602001908152602001600020600701546000808973ffffffffffffffffffffffffffffffffffffffff1673ffffffffffffffffffffffffffffffffffffffff1681526020019081526020016000206004016040518080602001848152602001836003801561121e576020028201915b8160009054906101000a900473ffffffffffffffffffffffffffffffffffffffff1673ffffffffffffffffffffffffffffffffffffffff16815260200190600101908083116111d4575b5050828103825260148152602001807f5665726966696564204365727469666963617465000000000000000000000000815250602001935050505060405180910390a36040805190810160405280601581526020017f56657269666966656420436572746966696361746500000000000000000000008152509250505061184c565b60008090505b6003811015611569576000808673ffffffffffffffffffffffffffffffffffffffff1673ffffffffffffffffffffffffffffffffffffffff168152602001908152602001600020600401816003811015156112fd57fe5b0160009054906101000a900473ffffffffffffffffffffffffffffffffffffffff1673ffffffffffffffffffffffffffffffffffffffff163373ffffffffffffffffffffffffffffffffffffffff16141561155c578473ffffffffffffffffffffffffffffffffffffffff163373ffffffffffffffffffffffffffffffffffffffff167fbfe96fc3dab10acb5699297ced34bfdf5fbc7a65b3e04557be5b74a90f2f15c66000808973ffffffffffffffffffffffffffffffffffffffff1673ffffffffffffffffffffffffffffffffffffffff168152602001908152602001600020600701546000808a73ffffffffffffffffffffffffffffffffffffffff1673ffffffffffffffffffffffffffffffffffffffff1681526020019081526020016000206004016040518080602001848152602001836003801561148c576020028201915b8160009054906101000a900473ffffffffffffffffffffffffffffffffffffffff1673ffffffffffffffffffffffffffffffffffffffff1681526020019060010190808311611442575b5050828103825260298152602001807f4365727469666963617465642043616e206265207665726966696564206f6e6c81526020017f79204f6e63652e2e2e0000000000000000000000000000000000000000000000815250604001935050505060405180910390a3606060405190810160405280602681526020017f4365727469666963617465642063616e206265207665726966696564206f6e6c81526020017f79204f6e63650000000000000000000000000000000000000000000000000000815250935050505061184c565b80806001019150506112a6565b50336000808673ffffffffffffffffffffffffffffffffffffffff1673ffffffffffffffffffffffffffffffffffffffff1681526020019081526020016000206004016000808773ffffffffffffffffffffffffffffffffffffffff1673ffffffffffffffffffffffffffffffffffffffff16815260200190815260200160002060070160008154809291906001019190505560038110151561160857fe5b0160006101000a81548173ffffffffffffffffffffffffffffffffffffffff021916908373ffffffffffffffffffffffffffffffffffffffff1602179055508373ffffffffffffffffffffffffffffffffffffffff163373ffffffffffffffffffffffffffffffffffffffff167fbfe96fc3dab10acb5699297ced34bfdf5fbc7a65b3e04557be5b74a90f2f15c66000808873ffffffffffffffffffffffffffffffffffffffff1673ffffffffffffffffffffffffffffffffffffffff168152602001908152602001600020600701546000808973ffffffffffffffffffffffffffffffffffffffff1673ffffffffffffffffffffffffffffffffffffffff16815260200190815260200160002060040160405180806020018481526020018360038015611781576020028201915b8160009054906101000a900473ffffffffffffffffffffffffffffffffffffffff1673ffffffffffffffffffffffffffffffffffffffff1681526020019060010190808311611737575b5050828103825260218152602001807f5665726966696572204164647265737320616464656420746f2061727261795b81526020017f5d00000000000000000000000000000000000000000000000000000000000000815250604001935050505060405180910390a3606060405190810160405280602181526020017f5665726966696572204164647265737320616464656420746f2061727261795b81526020017f5d00000000000000000000000000000000000000000000000000000000000000815250925050505b919050565b600060608060606000808673ffffffffffffffffffffffffffffffffffffffff1673ffffffffffffffffffffffffffffffffffffffff168152602001908152602001600020600001546000808773ffffffffffffffffffffffffffffffffffffffff1673ffffffffffffffffffffffffffffffffffffffff1681526020019081526020016000206001016000808873ffffffffffffffffffffffffffffffffffffffff1673ffffffffffffffffffffffffffffffffffffffff1681526020019081526020016000206002016000808973ffffffffffffffffffffffffffffffffffffffff1673ffffffffffffffffffffffffffffffffffffffff168152602001908152602001600020600301828054600181600116156101000203166002900480601f0160208091040260200160405190810160405280929190818152602001828054600181600116156101000203166002900480156119f25780601f106119c7576101008083540402835291602001916119f2565b820191906000526020600020905b8154815290600101906020018083116119d557829003601f168201915b50505050509250818054600181600116156101000203166002900480601f016020809104026020016040519081016040528092919081815260200182805460018160011615610100020316600290048015611a8e5780601f10611a6357610100808354040283529160200191611a8e565b820191906000526020600020905b815481529060010190602001808311611a7157829003601f168201915b50505050509150808054600181600116156101000203166002900480601f016020809104026020016040519081016040528092919081815260200182805460018160011615610100020316600290048015611b2a5780601f10611aff57610100808354040283529160200191611b2a565b820191906000526020600020905b815481529060010190602001808311611b0d57829003601f168201915b5050505050905093509350935093509193509193565b600481815481101515611b4f57fe5b906000526020600020016000915054906101000a900473ffffffffffffffffffffffffffffffffffffffff1681565b6000806000905060008090505b600480549050811015611c1f57600481815481101515611ba757fe5b9060005260206000200160009054906101000a900473ffffffffffffffffffffffffffffffffffffffff1673ffffffffffffffffffffffffffffffffffffffff163373ffffffffffffffffffffffffffffffffffffffff161415611c0e5760019150611c1f565b600091508080600101915050611b8b565b506001811415611c33576000915050611e34565b600080905060008090505b600180549050811015611cd257600181815481101515611c5a57fe5b9060005260206000200160009054906101000a900473ffffffffffffffffffffffffffffffffffffffff1673ffffffffffffffffffffffffffffffffffffffff163373ffffffffffffffffffffffffffffffffffffffff161415611cc15760019150611cd2565b600091508080600101915050611c3e565b506001811415611ce757600092505050611e34565b60008060003373ffffffffffffffffffffffffffffffffffffffff1673ffffffffffffffffffffffffffffffffffffffff168152602001908152602001600020905087816000018190555086816001019080519060200190611d4a92919061239f565b5085816002019080519060200190611d6392919061239f565b5084816003019080519060200190611d7c92919061239f565b506000816007018190555060013390806001815401808255809150509060018203906000526020600020016000909192909190916101000a81548173ffffffffffffffffffffffffffffffffffffffff021916908373ffffffffffffffffffffffffffffffffffffffff160217905550506002869080600181540180825580915050906001820390600052602060002001600090919290919091509080519060200190611e2a92919061239f565b5050600193505050505b949350505050565b600181815481101515611e4b57fe5b906000526020600020016000915054906101000a900473ffffffffffffffffffffffffffffffffffffffff1681565b600281815481101515611e8957fe5b906000526020600020016000915090508054600181600116156101000203166002900480601f016020809104026020016040519081016040528092919081815260200182805460018160011615610100020316600290048015611f2d5780601f10611f0257610100808354040283529160200191611f2d565b820191906000526020600020905b815481529060010190602001808311611f1057829003601f168201915b505050505081565b60008060009050600093505b600480549050841015611fd557600484815481101515611f5d57fe5b9060005260206000200160009054906101000a900473ffffffffffffffffffffffffffffffffffffffff1673ffffffffffffffffffffffffffffffffffffffff163373ffffffffffffffffffffffffffffffffffffffff161415611fc45760019050611fd5565b600090508380600101945050611f41565b6001811415611fe8576000915050612186565b6000809050600094505b6001805490508510156120865760018581548110151561200e57fe5b9060005260206000200160009054906101000a900473ffffffffffffffffffffffffffffffffffffffff1673ffffffffffffffffffffffffffffffffffffffff163373ffffffffffffffffffffffffffffffffffffffff1614156120755760019050612086565b600090508480600101955050611ff2565b600181141561209a57600092505050612186565b6000600360003373ffffffffffffffffffffffffffffffffffffffff1673ffffffffffffffffffffffffffffffffffffffff1681526020019081526020016000209050868160000190805190602001906120f592919061239f565b508581600101819055508481600201908051906020019061211792919061239f565b5060043390806001815401808255809150509060018203906000526020600020016000909192909190916101000a81548173ffffffffffffffffffffffffffffffffffffffff021916908373ffffffffffffffffffffffffffffffffffffffff16021790555050600193505050505b9392505050565b606060006060600360008573ffffffffffffffffffffffffffffffffffffffff1673ffffffffffffffffffffffffffffffffffffffff168152602001908152602001600020600001600360008673ffffffffffffffffffffffffffffffffffffffff1673ffffffffffffffffffffffffffffffffffffffff16815260200190815260200160002060010154600360008773ffffffffffffffffffffffffffffffffffffffff1673ffffffffffffffffffffffffffffffffffffffff168152602001908152602001600020600201828054600181600116156101000203166002900480601f0160208091040260200160405190810160405280929190818152602001828054600181600116156101000203166002900480156122ef5780601f106122c4576101008083540402835291602001916122ef565b820191906000526020600020905b8154815290600101906020018083116122d257829003601f168201915b50505050509250808054600181600116156101000203166002900480601f01602080910402602001604051908101604052809291908181526020018280546001816001161561010002031660029004801561238b5780601f106123605761010080835404028352916020019161238b565b820191906000526020600020905b81548152906001019060200180831161236e57829003601f168201915b505050505090509250925092509193909250565b828054600181600116156101000203166002900490600052602060002090601f016020900481019282601f106123e057805160ff191683800117855561240e565b8280016001018555821561240e579182015b8281111561240d5782518255916020019190600101906123f2565b5b50905061241b919061241f565b5090565b61244191905b8082111561243d576000816000905550600101612425565b5090565b9056fea165627a7a723058208fd3de9c7e501cfad54db89b7a64d222717b96c76d15d92d02f3cb6c81e37e370029",
  "source": "pragma solidity ^0.5.0;\r\n\r\ncontract Main {\r\n    \r\n    struct Student{\r\n        uint usn;\r\n        string name;\r\n        string certId;\r\n        string college;\r\n        address[3] verifier;\r\n        uint count; \r\n    }\r\n    mapping(address => Student) students;\r\n    event Check(address indexed _from,address indexed _to, string certId, uint count, address[3] verify);\r\n    address[] public studentacc;\r\n    string[] public cerificateHash;\r\n    \r\n   struct Teacher{\r\n       string name;\r\n       uint id;\r\n       string post;\r\n   }\r\n   mapping (address => Teacher) teachers;\r\n   address[] public teacheracc;\r\n   \r\n    function setStudent(uint u, string memory n, string memory cer, string memory coll)  public returns (bool) {\r\n        uint tFlag=0;\r\n        for(uint i=0;i<teacheracc.length;i++){\r\n            if(msg.sender == teacheracc[i]){\r\n                tFlag=1;\r\n                break;\r\n            }\r\n            else{\r\n                tFlag=0;\r\n            }\r\n        }\r\n        if(tFlag==1){\r\n            return false;\r\n        }\r\n        \r\n        uint sFlag=0;\r\n        for(uint i=0;i<studentacc.length;i++){\r\n            if(msg.sender == studentacc[i]){\r\n                sFlag=1;\r\n                break;\r\n            }\r\n            else{\r\n                sFlag=0;\r\n            }\r\n        }\r\n        if(sFlag==1){\r\n            return false;\r\n        }\r\n        \r\n        Student storage student = students[msg.sender];\r\n        student.usn = u;\r\n        student.name = n;\r\n        student.certId = cer;\r\n        student.college = coll;\r\n        student.count = 0;\r\n        studentacc.push(msg.sender);\r\n        cerificateHash.push(cer);\r\n        return true;\r\n    }\r\n    function getStudent(address ins) view public returns (uint, string memory, string memory, string memory){\r\n        return (students[ins].usn, students[ins].name, students[ins].certId, students[ins].college);\r\n    }\r\n    function getStudentAddress() view public returns (address[] memory)  {\r\n        return studentacc;\r\n    }\r\n\r\n   function setTeacher(string memory n, uint i,string memory d) public returns (bool) {\r\n       \r\n        uint tFlag=0;\r\n        for(i=0;i<teacheracc.length;i++){\r\n            if(msg.sender == teacheracc[i]){\r\n                tFlag=1;\r\n                break;\r\n            }\r\n            else{\r\n                tFlag=0;\r\n            }\r\n        }\r\n        if(tFlag==1){\r\n            return false;\r\n        }\r\n        \r\n        uint sFlag=0;\r\n        for(i=0;i<studentacc.length;i++){\r\n            if(msg.sender == studentacc[i]){\r\n                sFlag=1;\r\n                break;\r\n            }\r\n            else{\r\n                sFlag=0;\r\n            }\r\n        }\r\n        if(sFlag==1){\r\n            return false;\r\n        }\r\n        \r\n        Teacher storage teacher = teachers[msg.sender];\r\n        teacher.name = n;\r\n        teacher.id = i;\r\n        teacher.post = d;\r\n        teacheracc.push(msg.sender);\r\n        return true;\r\n   }\r\n   function getTeacherAddress() view public returns (address[] memory)  {\r\n        return teacheracc;\r\n    }\r\n\r\n    function getTeacher(address ins) view public returns (string memory, uint, string memory) {\r\n        return (teachers[ins].name, teachers[ins].id, teachers[ins].post);\r\n    }\r\n    \r\n    function verify(address studAdd) payable public returns(string memory){\r\n        //if teacher is a valid person in the network\r\n        uint tFlag=0;\r\n        for(uint i=0;i<teacheracc.length;i++){\r\n            if(msg.sender == teacheracc[i]){\r\n                tFlag=1;\r\n                break;\r\n            }\r\n            else{\r\n                tFlag=0;\r\n            }\r\n        }\r\n        if(tFlag==0){\r\n            emit Check(msg.sender, studAdd, \"Teacher Not in Network: Invalid Address\",students[studAdd].count, students[studAdd].verifier);\r\n            return \"Invalid address\";\r\n        }\r\n        //if the student address is valid in the network\r\n        uint sFlag=0;\r\n        for(uint i=0;i<studentacc.length;i++){\r\n            if(studAdd == studentacc[i]){\r\n                sFlag=1;\r\n                break;\r\n            }\r\n            else{\r\n                sFlag=0;\r\n            }\r\n        }\r\n        if(sFlag==0){\r\n            emit Check(msg.sender, studAdd, \"Certificate Not in Network: Invalid Address\",students[studAdd].count, students[studAdd].verifier);\r\n            return \"Invalid address\";\r\n        }\r\n        //if the certificate to be verified is added to the network by any student or not\r\n        //Checking if the cerificate is verified by 3 teachers before\r\n        if(students[studAdd].count==3){\r\n            emit Check(msg.sender, studAdd, \"Verified Certificate\",students[studAdd].count, students[studAdd].verifier);\r\n            return \"Verififed Certificate\";\r\n        }\r\n        //For loop is to check if the certificate is verified by teacher before...\r\n        for (uint i=0; i<3; i++){\r\n            if(msg.sender == students[studAdd].verifier[i]){\r\n                emit Check(msg.sender,studAdd, \"Certificated Can be verified only Once...\",students[studAdd].count, students[studAdd].verifier);\r\n                return \"Certificated can be verified only Once\";\r\n            }\r\n        }\r\n        // If the certificate is not verified by the teacher then it verifies and the teacher address gets added to the student verifier array\r\n          students[studAdd].verifier[students[studAdd].count++] = msg.sender; \r\n          emit Check(msg.sender, studAdd, \"Verifier Address added to array[]\" ,students[studAdd].count, students[studAdd].verifier);\r\n         return \"Verifier Address added to array[]\";\r\n    }\r\n}",
  "sourcePath": "D:/project/contracts/Main.sol",
  "compiler": {
    "name": "solc",
    "version": "0.5.0+commit.1d4f565a.Emscripten.clang"
  },
  "schemaVersion": "3.0.1",
  "updatedAt": "2020-05-02T12:10:38.011Z",
  "devdoc": {
    "methods": {}
  },
  "userdoc": {
    "methods": {}
  }
}