{
  "contractName": "Main",
  "abi": [
    {
      "constant": true,
      "inputs": [
        {
          "name": "",
          "type": "uint256"
        }
      ],
      "name": "teacheracc",
      "outputs": [
        {
          "name": "",
          "type": "address"
        }
      ],
      "payable": false,
      "stateMutability": "view",
      "type": "function",
      "signature": "0x7024974d"
    },
    {
      "constant": true,
      "inputs": [
        {
          "name": "",
          "type": "uint256"
        }
      ],
      "name": "studentacc",
      "outputs": [
        {
          "name": "",
          "type": "address"
        }
      ],
      "payable": false,
      "stateMutability": "view",
      "type": "function",
      "signature": "0xaf4fda7e"
    },
    {
      "constant": true,
      "inputs": [
        {
          "name": "",
          "type": "uint256"
        }
      ],
      "name": "cerificateHash",
      "outputs": [
        {
          "name": "",
          "type": "string"
        }
      ],
      "payable": false,
      "stateMutability": "view",
      "type": "function",
      "signature": "0xc2567e45"
    },
    {
      "anonymous": false,
      "inputs": [
        {
          "indexed": true,
          "name": "_from",
          "type": "address"
        },
        {
          "indexed": true,
          "name": "_to",
          "type": "address"
        },
        {
          "indexed": false,
          "name": "certId",
          "type": "string"
        },
        {
          "indexed": false,
          "name": "count",
          "type": "uint256"
        },
        {
          "indexed": false,
          "name": "verify",
          "type": "address[3]"
        }
      ],
      "name": "Check",
      "type": "event",
      "signature": "0xbfe96fc3dab10acb5699297ced34bfdf5fbc7a65b3e04557be5b74a90f2f15c6"
    },
    {
      "constant": false,
      "inputs": [
        {
          "name": "u",
          "type": "uint256"
        },
        {
          "name": "n",
          "type": "string"
        },
        {
          "name": "cer",
          "type": "string"
        },
        {
          "name": "coll",
          "type": "string"
        }
      ],
      "name": "setStudent",
      "outputs": [
        {
          "name": "",
          "type": "bool"
        }
      ],
      "payable": false,
      "stateMutability": "nonpayable",
      "type": "function",
      "signature": "0x984a04a5"
    },
    {
      "constant": true,
      "inputs": [
        {
          "name": "ins",
          "type": "address"
        }
      ],
      "name": "getStudent",
      "outputs": [
        {
          "name": "",
          "type": "uint256"
        },
        {
          "name": "",
          "type": "string"
        },
        {
          "name": "",
          "type": "string"
        },
        {
          "name": "",
          "type": "string"
        }
      ],
      "payable": false,
      "stateMutability": "view",
      "type": "function",
      "signature": "0x6b7b44d7"
    },
    {
      "constant": true,
      "inputs": [],
      "name": "getStudentAddress",
      "outputs": [
        {
          "name": "",
          "type": "address[]"
        }
      ],
      "payable": false,
      "stateMutability": "view",
      "type": "function",
      "signature": "0x3c732815"
    },
    {
      "constant": false,
      "inputs": [
        {
          "name": "n",
          "type": "string"
        },
        {
          "name": "i",
          "type": "uint256"
        },
        {
          "name": "d",
          "type": "string"
        }
      ],
      "name": "setTeacher",
      "outputs": [
        {
          "name": "",
          "type": "bool"
        }
      ],
      "payable": false,
      "stateMutability": "nonpayable",
      "type": "function",
      "signature": "0xc6e93f57"
    },
    {
      "constant": true,
      "inputs": [],
      "name": "getTeacherAddress",
      "outputs": [
        {
          "name": "",
          "type": "address[]"
        }
      ],
      "payable": false,
      "stateMutability": "view",
      "type": "function",
      "signature": "0x3650d11b"
    },
    {
      "constant": true,
      "inputs": [
        {
          "name": "ins",
          "type": "address"
        }
      ],
      "name": "getTeacher",
      "outputs": [
        {
          "name": "",
          "type": "string"
        },
        {
          "name": "",
          "type": "uint256"
        },
        {
          "name": "",
          "type": "string"
        }
      ],
      "payable": false,
      "stateMutability": "view",
      "type": "function",
      "signature": "0xfb4326fa"
    },
    {
      "constant": false,
      "inputs": [
        {
          "name": "addr",
          "type": "address"
        }
      ],
      "name": "destroy",
      "outputs": [],
      "payable": false,
      "stateMutability": "nonpayable",
      "type": "function",
      "signature": "0x00f55d9d"
    },
    {
      "constant": false,
      "inputs": [
        {
          "name": "studAdd",
          "type": "address"
        }
      ],
      "name": "verify",
      "outputs": [
        {
          "name": "",
          "type": "string"
        }
      ],
      "payable": true,
      "stateMutability": "payable",
      "type": "function",
      "signature": "0x63a9c3d7"
    }
  ],
  "bytecode": "0x608060405234801561001057600080fd5b5061247c806100206000396000f3fe6080604052600436106100ae576000357c0100000000000000000000000000000000000000000000000000000000900463ffffffff168062f55d9d146100b35780633650d11b146101045780633c7328151461017057806363a9c3d7146101dc5780636b7b44d7146102995780637024974d14610442578063984a04a5146104bd578063af4fda7e146106d5578063c2567e4514610750578063c6e93f5714610804578063fb4326fa14610985575b600080fd5b3480156100bf57600080fd5b50610102600480360360208110156100d657600080fd5b81019080803573ffffffffffffffffffffffffffffffffffffffff169060200190929190505050610ac2565b005b34801561011057600080fd5b50610119610b56565b6040518080602001828103825283818151815260200191508051906020019060200280838360005b8381101561015c578082015181840152602081019050610141565b505050509050019250505060405180910390f35b34801561017c57600080fd5b50610185610be4565b6040518080602001828103825283818151815260200191508051906020019060200280838360005b838110156101c85780820151818401526020810190506101ad565b505050509050019250505060405180910390f35b61021e600480360360208110156101f257600080fd5b81019080803573ffffffffffffffffffffffffffffffffffffffff169060200190929190505050610c72565b6040518080602001828103825283818151815260200191508051906020019080838360005b8381101561025e578082015181840152602081019050610243565b50505050905090810190601f16801561028b5780820380516001836020036101000a031916815260200191505b509250505060405180910390f35b3480156102a557600080fd5b506102e8600480360360208110156102bc57600080fd5b81019080803573ffffffffffffffffffffffffffffffffffffffff169060200190929190505050611897565b60405180858152602001806020018060200180602001848103845287818151815260200191508051906020019080838360005b8381101561033657808201518184015260208101905061031b565b50505050905090810190601f1680156103635780820380516001836020036101000a031916815260200191505b50848103835286818151815260200191508051906020019080838360005b8381101561039c578082015181840152602081019050610381565b50505050905090810190601f1680156103c95780820380516001836020036101000a031916815260200191505b50848103825285818151815260200191508051906020019080838360005b838110156104025780820151818401526020810190506103e7565b50505050905090810190601f16801561042f5780820380516001836020036101000a031916815260200191505b5097505050505050505060405180910390f35b34801561044e57600080fd5b5061047b6004803603602081101561046557600080fd5b8101908080359060200190929190505050611b86565b604051808273ffffffffffffffffffffffffffffffffffffffff1673ffffffffffffffffffffffffffffffffffffffff16815260200191505060405180910390f35b3480156104c957600080fd5b506106bb600480360360808110156104e057600080fd5b81019080803590602001909291908035906020019064010000000081111561050757600080fd5b82018360208201111561051957600080fd5b8035906020019184600183028401116401000000008311171561053b57600080fd5b91908080601f016020809104026020016040519081016040528093929190818152602001838380828437600081840152601f19601f8201169050808301925050505050505091929192908035906020019064010000000081111561059e57600080fd5b8201836020820111156105b057600080fd5b803590602001918460018302840111640100000000831117156105d257600080fd5b91908080601f016020809104026020016040519081016040528093929190818152602001838380828437600081840152601f19601f8201169050808301925050505050505091929192908035906020019064010000000081111561063557600080fd5b82018360208201111561064757600080fd5b8035906020019184600183028401116401000000008311171561066957600080fd5b91908080601f016020809104026020016040519081016040528093929190818152602001838380828437600081840152601f19601f820116905080830192505050505050509192919290505050611bc4565b604051808215151515815260200191505060405180910390f35b3480156106e157600080fd5b5061070e600480360360208110156106f857600080fd5b8101908080359060200190929190505050611e34565b604051808273ffffffffffffffffffffffffffffffffffffffff1673ffffffffffffffffffffffffffffffffffffffff16815260200191505060405180910390f35b34801561075c57600080fd5b506107896004803603602081101561077357600080fd5b8101908080359060200190929190505050611e72565b6040518080602001828103825283818151815260200191508051906020019080838360005b838110156107c95780820151818401526020810190506107ae565b50505050905090810190601f1680156107f65780820380516001836020036101000a031916815260200191505b509250505060405180910390f35b34801561081057600080fd5b5061096b6004803603606081101561082757600080fd5b810190808035906020019064010000000081111561084457600080fd5b82018360208201111561085657600080fd5b8035906020019184600183028401116401000000008311171561087857600080fd5b91908080601f016020809104026020016040519081016040528093929190818152602001838380828437600081840152601f19601f82011690508083019250505050505050919291929080359060200190929190803590602001906401000000008111156108e557600080fd5b8201836020820111156108f757600080fd5b8035906020019184600183028401116401000000008311171561091957600080fd5b91908080601f016020809104026020016040519081016040528093929190818152602001838380828437600081840152601f19601f820116905080830192505050505050509192919290505050611f2d565b604051808215151515815260200191505060405180910390f35b34801561099157600080fd5b506109d4600480360360208110156109a857600080fd5b81019080803573ffffffffffffffffffffffffffffffffffffffff16906020019092919050505061213c565b604051808060200184815260200180602001838103835286818151815260200191508051906020019080838360005b83811015610a1e578082015181840152602081019050610a03565b50505050905090810190601f168015610a4b5780820380516001836020036101000a031916815260200191505b50838103825284818151815260200191508051906020019080838360005b83811015610a84578082015181840152602081019050610a69565b50505050905090810190601f168015610ab15780820380516001836020036101000a031916815260200191505b509550505050505060405180910390f35b6000808273ffffffffffffffffffffffffffffffffffffffff1673ffffffffffffffffffffffffffffffffffffffff168152602001908152602001600020600080820160009055600182016000610b19919061234e565b600282016000610b29919061234e565b600382016000610b39919061234e565b600482016000610b499190612396565b6007820160009055505050565b60606006805480602002602001604051908101604052809291908181526020018280548015610bda57602002820191906000526020600020905b8160009054906101000a900473ffffffffffffffffffffffffffffffffffffffff1673ffffffffffffffffffffffffffffffffffffffff1681526020019060010190808311610b90575b5050505050905090565b60606002805480602002602001604051908101604052809291908181526020018280548015610c6857602002820191906000526020600020905b8160009054906101000a900473ffffffffffffffffffffffffffffffffffffffff1673ffffffffffffffffffffffffffffffffffffffff1681526020019060010190808311610c1e575b5050505050905090565b606060001515600560003373ffffffffffffffffffffffffffffffffffffffff1673ffffffffffffffffffffffffffffffffffffffff16815260200190815260200160002060009054906101000a900460ff1615151415610ead578173ffffffffffffffffffffffffffffffffffffffff163373ffffffffffffffffffffffffffffffffffffffff167fbfe96fc3dab10acb5699297ced34bfdf5fbc7a65b3e04557be5b74a90f2f15c66000808673ffffffffffffffffffffffffffffffffffffffff1673ffffffffffffffffffffffffffffffffffffffff168152602001908152602001600020600701546000808773ffffffffffffffffffffffffffffffffffffffff1673ffffffffffffffffffffffffffffffffffffffff16815260200190815260200160002060040160405180806020018481526020018360038015610e07576020028201915b8160009054906101000a900473ffffffffffffffffffffffffffffffffffffffff1673ffffffffffffffffffffffffffffffffffffffff1681526020019060010190808311610dbd575b5050828103825260278152602001807f54656163686572204e6f7420696e204e6574776f726b3a20496e76616c69642081526020017f4164647265737300000000000000000000000000000000000000000000000000815250604001935050505060405180910390a36040805190810160405280600f81526020017f496e76616c6964206164647265737300000000000000000000000000000000008152509050611892565b60001515600160008473ffffffffffffffffffffffffffffffffffffffff1673ffffffffffffffffffffffffffffffffffffffff16815260200190815260200160002060009054906101000a900460ff16151514156110e6578173ffffffffffffffffffffffffffffffffffffffff163373ffffffffffffffffffffffffffffffffffffffff167fbfe96fc3dab10acb5699297ced34bfdf5fbc7a65b3e04557be5b74a90f2f15c66000808673ffffffffffffffffffffffffffffffffffffffff1673ffffffffffffffffffffffffffffffffffffffff168152602001908152602001600020600701546000808773ffffffffffffffffffffffffffffffffffffffff1673ffffffffffffffffffffffffffffffffffffffff16815260200190815260200160002060040160405180806020018481526020018360038015611040576020028201915b8160009054906101000a900473ffffffffffffffffffffffffffffffffffffffff1673ffffffffffffffffffffffffffffffffffffffff1681526020019060010190808311610ff6575b50508281038252602b8152602001807f4365727469666963617465204e6f7420696e204e6574776f726b3a20496e766181526020017f6c69642041646472657373000000000000000000000000000000000000000000815250604001935050505060405180910390a36040805190810160405280600f81526020017f496e76616c6964206164647265737300000000000000000000000000000000008152509050611892565b60036000808473ffffffffffffffffffffffffffffffffffffffff1673ffffffffffffffffffffffffffffffffffffffff1681526020019081526020016000206007015414156112ea578173ffffffffffffffffffffffffffffffffffffffff163373ffffffffffffffffffffffffffffffffffffffff167fbfe96fc3dab10acb5699297ced34bfdf5fbc7a65b3e04557be5b74a90f2f15c66000808673ffffffffffffffffffffffffffffffffffffffff1673ffffffffffffffffffffffffffffffffffffffff168152602001908152602001600020600701546000808773ffffffffffffffffffffffffffffffffffffffff1673ffffffffffffffffffffffffffffffffffffffff1681526020019081526020016000206004016040518080602001848152602001836003801561126a576020028201915b8160009054906101000a900473ffffffffffffffffffffffffffffffffffffffff1673ffffffffffffffffffffffffffffffffffffffff1681526020019060010190808311611220575b5050828103825260148152602001807f5665726966696564204365727469666963617465000000000000000000000000815250602001935050505060405180910390a36040805190810160405280601581526020017f56657269666966656420436572746966696361746500000000000000000000008152509050611892565b60008090505b60038110156115b1576000808473ffffffffffffffffffffffffffffffffffffffff1673ffffffffffffffffffffffffffffffffffffffff1681526020019081526020016000206004018160038110151561134757fe5b0160009054906101000a900473ffffffffffffffffffffffffffffffffffffffff1673ffffffffffffffffffffffffffffffffffffffff163373ffffffffffffffffffffffffffffffffffffffff1614156115a4578273ffffffffffffffffffffffffffffffffffffffff163373ffffffffffffffffffffffffffffffffffffffff167fbfe96fc3dab10acb5699297ced34bfdf5fbc7a65b3e04557be5b74a90f2f15c66000808773ffffffffffffffffffffffffffffffffffffffff1673ffffffffffffffffffffffffffffffffffffffff168152602001908152602001600020600701546000808873ffffffffffffffffffffffffffffffffffffffff1673ffffffffffffffffffffffffffffffffffffffff168152602001908152602001600020600401604051808060200184815260200183600380156114d6576020028201915b8160009054906101000a900473ffffffffffffffffffffffffffffffffffffffff1673ffffffffffffffffffffffffffffffffffffffff168152602001906001019080831161148c575b5050828103825260298152602001807f4365727469666963617465642043616e206265207665726966696564206f6e6c81526020017f79204f6e63652e2e2e0000000000000000000000000000000000000000000000815250604001935050505060405180910390a3606060405190810160405280602681526020017f4365727469666963617465642063616e206265207665726966696564206f6e6c81526020017f79204f6e63650000000000000000000000000000000000000000000000000000815250915050611892565b80806001019150506112f0565b50336000808473ffffffffffffffffffffffffffffffffffffffff1673ffffffffffffffffffffffffffffffffffffffff1681526020019081526020016000206004016000808573ffffffffffffffffffffffffffffffffffffffff1673ffffffffffffffffffffffffffffffffffffffff16815260200190815260200160002060070160008154809291906001019190505560038110151561165057fe5b0160006101000a81548173ffffffffffffffffffffffffffffffffffffffff021916908373ffffffffffffffffffffffffffffffffffffffff1602179055508173ffffffffffffffffffffffffffffffffffffffff163373ffffffffffffffffffffffffffffffffffffffff167fbfe96fc3dab10acb5699297ced34bfdf5fbc7a65b3e04557be5b74a90f2f15c66000808673ffffffffffffffffffffffffffffffffffffffff1673ffffffffffffffffffffffffffffffffffffffff168152602001908152602001600020600701546000808773ffffffffffffffffffffffffffffffffffffffff1673ffffffffffffffffffffffffffffffffffffffff168152602001908152602001600020600401604051808060200184815260200183600380156117c9576020028201915b8160009054906101000a900473ffffffffffffffffffffffffffffffffffffffff1673ffffffffffffffffffffffffffffffffffffffff168152602001906001019080831161177f575b5050828103825260218152602001807f5665726966696572204164647265737320616464656420746f2061727261795b81526020017f5d00000000000000000000000000000000000000000000000000000000000000815250604001935050505060405180910390a3606060405190810160405280602181526020017f5665726966696572204164647265737320616464656420746f2061727261795b81526020017f5d0000000000000000000000000000000000000000000000000000000000000081525090505b919050565b600060608060606000808673ffffffffffffffffffffffffffffffffffffffff1673ffffffffffffffffffffffffffffffffffffffff168152602001908152602001600020600001546000808773ffffffffffffffffffffffffffffffffffffffff1673ffffffffffffffffffffffffffffffffffffffff1681526020019081526020016000206001016000808873ffffffffffffffffffffffffffffffffffffffff1673ffffffffffffffffffffffffffffffffffffffff1681526020019081526020016000206002016000808973ffffffffffffffffffffffffffffffffffffffff1673ffffffffffffffffffffffffffffffffffffffff168152602001908152602001600020600301828054600181600116156101000203166002900480601f016020809104026020016040519081016040528092919081815260200182805460018160011615610100020316600290048015611a385780601f10611a0d57610100808354040283529160200191611a38565b820191906000526020600020905b815481529060010190602001808311611a1b57829003601f168201915b50505050509250818054600181600116156101000203166002900480601f016020809104026020016040519081016040528092919081815260200182805460018160011615610100020316600290048015611ad45780601f10611aa957610100808354040283529160200191611ad4565b820191906000526020600020905b815481529060010190602001808311611ab757829003601f168201915b50505050509150808054600181600116156101000203166002900480601f016020809104026020016040519081016040528092919081815260200182805460018160011615610100020316600290048015611b705780601f10611b4557610100808354040283529160200191611b70565b820191906000526020600020905b815481529060010190602001808311611b5357829003601f168201915b5050505050905093509350935093509193509193565b600681815481101515611b9557fe5b906000526020600020016000915054906101000a900473ffffffffffffffffffffffffffffffffffffffff1681565b600060011515600160003373ffffffffffffffffffffffffffffffffffffffff1673ffffffffffffffffffffffffffffffffffffffff16815260200190815260200160002060009054906101000a900460ff1615151415611c285760009050611e2c565b60011515600560003373ffffffffffffffffffffffffffffffffffffffff1673ffffffffffffffffffffffffffffffffffffffff16815260200190815260200160002060009054906101000a900460ff1615151415611c8a5760009050611e2c565b60008060003373ffffffffffffffffffffffffffffffffffffffff1673ffffffffffffffffffffffffffffffffffffffff168152602001908152602001600020905085816000018190555084816001019080519060200190611ced9291906123ab565b5083816002019080519060200190611d069291906123ab565b5082816003019080519060200190611d1f9291906123ab565b506000816007018190555060023390806001815401808255809150509060018203906000526020600020016000909192909190916101000a81548173ffffffffffffffffffffffffffffffffffffffff021916908373ffffffffffffffffffffffffffffffffffffffff1602179055505060018060003373ffffffffffffffffffffffffffffffffffffffff1673ffffffffffffffffffffffffffffffffffffffff16815260200190815260200160002060006101000a81548160ff0219169083151502179055506003849080600181540180825580915050906001820390600052602060002001600090919290919091509080519060200190611e249291906123ab565b505060019150505b949350505050565b600281815481101515611e4357fe5b906000526020600020016000915054906101000a900473ffffffffffffffffffffffffffffffffffffffff1681565b600381815481101515611e8157fe5b906000526020600020016000915090508054600181600116156101000203166002900480601f016020809104026020016040519081016040528092919081815260200182805460018160011615610100020316600290048015611f255780601f10611efa57610100808354040283529160200191611f25565b820191906000526020600020905b815481529060010190602001808311611f0857829003601f168201915b505050505081565b600060011515600560003373ffffffffffffffffffffffffffffffffffffffff1673ffffffffffffffffffffffffffffffffffffffff16815260200190815260200160002060009054906101000a900460ff1615151415611f915760009050612135565b60011515600160003373ffffffffffffffffffffffffffffffffffffffff1673ffffffffffffffffffffffffffffffffffffffff16815260200190815260200160002060009054906101000a900460ff1615151415611ff35760009050612135565b6000600460003373ffffffffffffffffffffffffffffffffffffffff1673ffffffffffffffffffffffffffffffffffffffff16815260200190815260200160002090508481600001908051906020019061204e9291906123ab565b50838160010181905550828160020190805190602001906120709291906123ab565b5060063390806001815401808255809150509060018203906000526020600020016000909192909190916101000a81548173ffffffffffffffffffffffffffffffffffffffff021916908373ffffffffffffffffffffffffffffffffffffffff160217905550506001600560003373ffffffffffffffffffffffffffffffffffffffff1673ffffffffffffffffffffffffffffffffffffffff16815260200190815260200160002060006101000a81548160ff02191690831515021790555060019150505b9392505050565b606060006060600460008573ffffffffffffffffffffffffffffffffffffffff1673ffffffffffffffffffffffffffffffffffffffff168152602001908152602001600020600001600460008673ffffffffffffffffffffffffffffffffffffffff1673ffffffffffffffffffffffffffffffffffffffff16815260200190815260200160002060010154600460008773ffffffffffffffffffffffffffffffffffffffff1673ffffffffffffffffffffffffffffffffffffffff168152602001908152602001600020600201828054600181600116156101000203166002900480601f01602080910402602001604051908101604052809291908181526020018280546001816001161561010002031660029004801561229e5780601f106122735761010080835404028352916020019161229e565b820191906000526020600020905b81548152906001019060200180831161228157829003601f168201915b50505050509250808054600181600116156101000203166002900480601f01602080910402602001604051908101604052809291908181526020018280546001816001161561010002031660029004801561233a5780601f1061230f5761010080835404028352916020019161233a565b820191906000526020600020905b81548152906001019060200180831161231d57829003601f168201915b505050505090509250925092509193909250565b50805460018160011615610100020316600290046000825580601f106123745750612393565b601f016020900490600052602060002090810190612392919061242b565b5b50565b50600081556001016000815560010160009055565b828054600181600116156101000203166002900490600052602060002090601f016020900481019282601f106123ec57805160ff191683800117855561241a565b8280016001018555821561241a579182015b828111156124195782518255916020019190600101906123fe565b5b509050612427919061242b565b5090565b61244d91905b80821115612449576000816000905550600101612431565b5090565b9056fea165627a7a723058204600512fd7f520954e69cefbbcbb1162f775c136c6def57ec8633a57f196659a0029",
  "source": "pragma solidity ^0.5.0;\r\n\r\ncontract Main {\r\n\r\n    struct Student{\r\n        uint usn;\r\n        string name;\r\n        string certId;\r\n        string college;\r\n        address[3] verifier;\r\n        uint count;\r\n    }\r\n    mapping(address => Student) students;\r\n    mapping(address => bool) studCheck;\r\n    event Check(address indexed _from,address indexed _to, string certId, uint count, address[3] verify);\r\n    address[] public studentacc;\r\n    string[] public cerificateHash;\r\n    \r\n   struct Teacher{\r\n       string name;\r\n       uint id;\r\n       string post;\r\n   }\r\n   mapping (address => Teacher) teachers;\r\n   mapping(address => bool) teachCheck;\r\n   address[] public teacheracc;\r\n   \r\n    function setStudent(uint u, string memory n, string memory cer, string memory coll)  public returns (bool) {\r\n        if(studCheck[msg.sender] == true) return false;\r\n        \r\n        if(teachCheck[msg.sender] == true) return false;\r\n        \r\n        Student storage student = students[msg.sender];\r\n        student.usn = u;\r\n        student.name = n;\r\n        student.certId = cer;\r\n        student.college = coll;\r\n        student.count = 0;\r\n        studentacc.push(msg.sender);\r\n        studCheck[msg.sender] = true;\r\n        cerificateHash.push(cer);\r\n        return true;\r\n    }\r\n    function getStudent(address ins) view public returns (uint, string memory, string memory, string memory){\r\n        return (students[ins].usn, students[ins].name, students[ins].certId, students[ins].college);\r\n    }\r\n    function getStudentAddress() view public returns (address[] memory)  {\r\n        return studentacc;\r\n    }\r\n\r\n   function setTeacher(string memory n, uint i,string memory d) public returns (bool) {\r\n       \r\n        if(teachCheck[msg.sender]==true) return false;\r\n        \r\n        if(studCheck[msg.sender] == true) return false;\r\n        Teacher storage teacher = teachers[msg.sender];\r\n        teacher.name = n;\r\n        teacher.id = i;\r\n        teacher.post = d;\r\n        teacheracc.push(msg.sender);\r\n        teachCheck[msg.sender] = true;\r\n        return true;\r\n   }\r\n   function getTeacherAddress() view public returns (address[] memory)  {\r\n        return teacheracc;\r\n    }\r\n\r\n    function getTeacher(address ins) view public returns (string memory, uint, string memory) {\r\n        return (teachers[ins].name, teachers[ins].id, teachers[ins].post);\r\n    }\r\n    function destroy (address addr) public {\r\n        //require(exists(msg.sender));\r\n        delete students[addr];\r\n        //emit UserDestroyed(msg.sender);\r\n  }\r\n    function verify(address studAdd) payable public returns(string memory){\r\n        //if teacher is a valid person in the network\r\n        \r\n        if(teachCheck[msg.sender]==false){\r\n            emit Check(msg.sender, studAdd, \"Teacher Not in Network: Invalid Address\",students[studAdd].count, students[studAdd].verifier);\r\n            return \"Invalid address\";\r\n        }\r\n        //if the Certificate address is valid in the network\r\n        if(studCheck[studAdd] == false){\r\n            emit Check(msg.sender, studAdd, \"Certificate Not in Network: Invalid Address\",students[studAdd].count, students[studAdd].verifier);\r\n            return \"Invalid address\";\r\n        }\r\n        //if the certificate to be verified is added to the network by any student or not\r\n        //Checking if the cerificate is verified by 3 teachers before\r\n        if(students[studAdd].count==3){\r\n            emit Check(msg.sender, studAdd, \"Verified Certificate\",students[studAdd].count, students[studAdd].verifier);\r\n            return \"Verififed Certificate\";\r\n        }\r\n        //For loop is to check if the certificate is verified by teacher before...\r\n        for (uint i=0; i<3; i++){\r\n            if(msg.sender == students[studAdd].verifier[i]){\r\n                emit Check(msg.sender,studAdd, \"Certificated Can be verified only Once...\",students[studAdd].count, students[studAdd].verifier);\r\n                return \"Certificated can be verified only Once\";\r\n            }\r\n        }\r\n        // If the certificate is not verified by the teacher then it verifies and the teacher address gets added to the student verifier array\r\n          students[studAdd].verifier[students[studAdd].count++] = msg.sender; \r\n          emit Check(msg.sender, studAdd, \"Verifier Address added to array[]\" ,students[studAdd].count, students[studAdd].verifier);\r\n         return \"Verifier Address added to array[]\";\r\n    }\r\n}",
  "sourcePath": "D:/Final_Year_Project/contracts/Main.sol",
  "compiler": {
    "name": "solc",
    "version": "0.5.0+commit.1d4f565a.Emscripten.clang"
  },
  "schemaVersion": "3.0.1",
  "updatedAt": "2020-05-03T08:48:09.357Z",
  "devdoc": {
    "methods": {}
  },
  "userdoc": {
    "methods": {}
  }
}