{
  "contractName": "Main",
  "abi": [
    {
      "constant": true,
      "inputs": [
        {
          "name": "",
          "type": "uint256"
        }
      ],
      "name": "teacheracc",
      "outputs": [
        {
          "name": "",
          "type": "address"
        }
      ],
      "payable": false,
      "stateMutability": "view",
      "type": "function",
      "signature": "0x7024974d"
    },
    {
      "constant": true,
      "inputs": [
        {
          "name": "",
          "type": "uint256"
        }
      ],
      "name": "studentacc",
      "outputs": [
        {
          "name": "",
          "type": "address"
        }
      ],
      "payable": false,
      "stateMutability": "view",
      "type": "function",
      "signature": "0xaf4fda7e"
    },
    {
      "constant": true,
      "inputs": [
        {
          "name": "",
          "type": "uint256"
        }
      ],
      "name": "cerificateHash",
      "outputs": [
        {
          "name": "",
          "type": "string"
        }
      ],
      "payable": false,
      "stateMutability": "view",
      "type": "function",
      "signature": "0xc2567e45"
    },
    {
      "anonymous": false,
      "inputs": [
        {
          "indexed": true,
          "name": "_from",
          "type": "address"
        },
        {
          "indexed": true,
          "name": "_to",
          "type": "address"
        },
        {
          "indexed": false,
          "name": "certId",
          "type": "string"
        },
        {
          "indexed": false,
          "name": "count",
          "type": "uint256"
        },
        {
          "indexed": false,
          "name": "verify",
          "type": "address[3]"
        }
      ],
      "name": "Check",
      "type": "event",
      "signature": "0xbfe96fc3dab10acb5699297ced34bfdf5fbc7a65b3e04557be5b74a90f2f15c6"
    },
    {
      "constant": false,
      "inputs": [
        {
          "name": "u",
          "type": "string"
        },
        {
          "name": "n",
          "type": "string"
        },
        {
          "name": "cer",
          "type": "string"
        },
        {
          "name": "coll",
          "type": "string"
        }
      ],
      "name": "setStudent",
      "outputs": [
        {
          "name": "",
          "type": "bool"
        }
      ],
      "payable": false,
      "stateMutability": "nonpayable",
      "type": "function",
      "signature": "0x86186998"
    },
    {
      "constant": true,
      "inputs": [
        {
          "name": "ins",
          "type": "address"
        }
      ],
      "name": "getStudent",
      "outputs": [
        {
          "name": "",
          "type": "string"
        },
        {
          "name": "",
          "type": "string"
        },
        {
          "name": "",
          "type": "string"
        },
        {
          "name": "",
          "type": "string"
        }
      ],
      "payable": false,
      "stateMutability": "view",
      "type": "function",
      "signature": "0x6b7b44d7"
    },
    {
      "constant": true,
      "inputs": [
        {
          "name": "ins",
          "type": "address"
        }
      ],
      "name": "getVerifyedBy",
      "outputs": [
        {
          "name": "",
          "type": "uint256"
        },
        {
          "name": "",
          "type": "address"
        },
        {
          "name": "",
          "type": "address"
        },
        {
          "name": "",
          "type": "address"
        }
      ],
      "payable": false,
      "stateMutability": "view",
      "type": "function",
      "signature": "0x67bd9e5f"
    },
    {
      "constant": true,
      "inputs": [],
      "name": "getStudentAddress",
      "outputs": [
        {
          "name": "",
          "type": "address[]"
        }
      ],
      "payable": false,
      "stateMutability": "view",
      "type": "function",
      "signature": "0x3c732815"
    },
    {
      "constant": false,
      "inputs": [
        {
          "name": "n",
          "type": "string"
        },
        {
          "name": "i",
          "type": "string"
        },
        {
          "name": "d",
          "type": "string"
        },
        {
          "name": "dom",
          "type": "string"
        }
      ],
      "name": "setTeacher",
      "outputs": [
        {
          "name": "",
          "type": "bool"
        }
      ],
      "payable": false,
      "stateMutability": "nonpayable",
      "type": "function",
      "signature": "0x32f26e98"
    },
    {
      "constant": true,
      "inputs": [],
      "name": "getTeacherAddress",
      "outputs": [
        {
          "name": "",
          "type": "address[]"
        }
      ],
      "payable": false,
      "stateMutability": "view",
      "type": "function",
      "signature": "0x3650d11b"
    },
    {
      "constant": true,
      "inputs": [
        {
          "name": "ins",
          "type": "address"
        }
      ],
      "name": "getTeacher",
      "outputs": [
        {
          "name": "",
          "type": "string"
        },
        {
          "name": "",
          "type": "string"
        },
        {
          "name": "",
          "type": "string"
        },
        {
          "name": "",
          "type": "string"
        }
      ],
      "payable": false,
      "stateMutability": "view",
      "type": "function",
      "signature": "0xfb4326fa"
    },
    {
      "constant": false,
      "inputs": [
        {
          "name": "addr",
          "type": "address"
        }
      ],
      "name": "destroy",
      "outputs": [],
      "payable": false,
      "stateMutability": "nonpayable",
      "type": "function",
      "signature": "0x00f55d9d"
    },
    {
      "constant": false,
      "inputs": [
        {
          "name": "studAdd",
          "type": "address"
        }
      ],
      "name": "verify",
      "outputs": [
        {
          "name": "",
          "type": "string"
        }
      ],
      "payable": true,
      "stateMutability": "payable",
      "type": "function",
      "signature": "0x63a9c3d7"
    }
  ],
  "bytecode": "0x608060405234801561001057600080fd5b50612c6d806100206000396000f3fe6080604052600436106100b9576000357c0100000000000000000000000000000000000000000000000000000000900463ffffffff168062f55d9d146100be57806332f26e981461010f5780633650d11b146103b45780633c7328151461042057806363a9c3d71461048c57806367bd9e5f146105495780636b7b44d7146106475780637024974d1461085557806386186998146108d0578063af4fda7e14610b75578063c2567e4514610bf0578063fb4326fa14610ca4575b600080fd5b3480156100ca57600080fd5b5061010d600480360360208110156100e157600080fd5b81019080803573ffffffffffffffffffffffffffffffffffffffff169060200190929190505050610eb2565b005b34801561011b57600080fd5b5061039a6004803603608081101561013257600080fd5b810190808035906020019064010000000081111561014f57600080fd5b82018360208201111561016157600080fd5b8035906020019184600183028401116401000000008311171561018357600080fd5b91908080601f016020809104026020016040519081016040528093929190818152602001838380828437600081840152601f19601f820116905080830192505050505050509192919290803590602001906401000000008111156101e657600080fd5b8201836020820111156101f857600080fd5b8035906020019184600183028401116401000000008311171561021a57600080fd5b91908080601f016020809104026020016040519081016040528093929190818152602001838380828437600081840152601f19601f8201169050808301925050505050505091929192908035906020019064010000000081111561027d57600080fd5b82018360208201111561028f57600080fd5b803590602001918460018302840111640100000000831117156102b157600080fd5b91908080601f016020809104026020016040519081016040528093929190818152602001838380828437600081840152601f19601f8201169050808301925050505050505091929192908035906020019064010000000081111561031457600080fd5b82018360208201111561032657600080fd5b8035906020019184600183028401116401000000008311171561034857600080fd5b91908080601f016020809104026020016040519081016040528093929190818152602001838380828437600081840152601f19601f820116905080830192505050505050509192919290505050610f4e565b604051808215151515815260200191505060405180910390f35b3480156103c057600080fd5b506103c9611187565b6040518080602001828103825283818151815260200191508051906020019060200280838360005b8381101561040c5780820151818401526020810190506103f1565b505050509050019250505060405180910390f35b34801561042c57600080fd5b50610435611215565b6040518080602001828103825283818151815260200191508051906020019060200280838360005b8381101561047857808201518184015260208101905061045d565b505050509050019250505060405180910390f35b6104ce600480360360208110156104a257600080fd5b81019080803573ffffffffffffffffffffffffffffffffffffffff1690602001909291905050506112a3565b6040518080602001828103825283818151815260200191508051906020019080838360005b8381101561050e5780820151818401526020810190506104f3565b50505050905090810190601f16801561053b5780820380516001836020036101000a031916815260200191505b509250505060405180910390f35b34801561055557600080fd5b506105986004803603602081101561056c57600080fd5b81019080803573ffffffffffffffffffffffffffffffffffffffff169060200190929190505050611ec8565b604051808581526020018473ffffffffffffffffffffffffffffffffffffffff1673ffffffffffffffffffffffffffffffffffffffff1681526020018373ffffffffffffffffffffffffffffffffffffffff1673ffffffffffffffffffffffffffffffffffffffff1681526020018273ffffffffffffffffffffffffffffffffffffffff1673ffffffffffffffffffffffffffffffffffffffff16815260200194505050505060405180910390f35b34801561065357600080fd5b506106966004803603602081101561066a57600080fd5b81019080803573ffffffffffffffffffffffffffffffffffffffff169060200190929190505050612072565b6040518080602001806020018060200180602001858103855289818151815260200191508051906020019080838360005b838110156106e25780820151818401526020810190506106c7565b50505050905090810190601f16801561070f5780820380516001836020036101000a031916815260200191505b50858103845288818151815260200191508051906020019080838360005b8381101561074857808201518184015260208101905061072d565b50505050905090810190601f1680156107755780820380516001836020036101000a031916815260200191505b50858103835287818151815260200191508051906020019080838360005b838110156107ae578082015181840152602081019050610793565b50505050905090810190601f1680156107db5780820380516001836020036101000a031916815260200191505b50858103825286818151815260200191508051906020019080838360005b838110156108145780820151818401526020810190506107f9565b50505050905090810190601f1680156108415780820380516001836020036101000a031916815260200191505b509850505050505050505060405180910390f35b34801561086157600080fd5b5061088e6004803603602081101561087857600080fd5b81019080803590602001909291905050506123fb565b604051808273ffffffffffffffffffffffffffffffffffffffff1673ffffffffffffffffffffffffffffffffffffffff16815260200191505060405180910390f35b3480156108dc57600080fd5b50610b5b600480360360808110156108f357600080fd5b810190808035906020019064010000000081111561091057600080fd5b82018360208201111561092257600080fd5b8035906020019184600183028401116401000000008311171561094457600080fd5b91908080601f016020809104026020016040519081016040528093929190818152602001838380828437600081840152601f19601f820116905080830192505050505050509192919290803590602001906401000000008111156109a757600080fd5b8201836020820111156109b957600080fd5b803590602001918460018302840111640100000000831117156109db57600080fd5b91908080601f016020809104026020016040519081016040528093929190818152602001838380828437600081840152601f19601f82011690508083019250505050505050919291929080359060200190640100000000811115610a3e57600080fd5b820183602082011115610a5057600080fd5b80359060200191846001830284011164010000000083111715610a7257600080fd5b91908080601f016020809104026020016040519081016040528093929190818152602001838380828437600081840152601f19601f82011690508083019250505050505050919291929080359060200190640100000000811115610ad557600080fd5b820183602082011115610ae757600080fd5b80359060200191846001830284011164010000000083111715610b0957600080fd5b91908080601f016020809104026020016040519081016040528093929190818152602001838380828437600081840152601f19601f820116905080830192505050505050509192919290505050612439565b604051808215151515815260200191505060405180910390f35b348015610b8157600080fd5b50610bae60048036036020811015610b9857600080fd5b81019080803590602001909291905050506126b9565b604051808273ffffffffffffffffffffffffffffffffffffffff1673ffffffffffffffffffffffffffffffffffffffff16815260200191505060405180910390f35b348015610bfc57600080fd5b50610c2960048036036020811015610c1357600080fd5b81019080803590602001909291905050506126f7565b6040518080602001828103825283818151815260200191508051906020019080838360005b83811015610c69578082015181840152602081019050610c4e565b50505050905090810190601f168015610c965780820380516001836020036101000a031916815260200191505b509250505060405180910390f35b348015610cb057600080fd5b50610cf360048036036020811015610cc757600080fd5b81019080803573ffffffffffffffffffffffffffffffffffffffff1690602001909291905050506127b2565b6040518080602001806020018060200180602001858103855289818151815260200191508051906020019080838360005b83811015610d3f578082015181840152602081019050610d24565b50505050905090810190601f168015610d6c5780820380516001836020036101000a031916815260200191505b50858103845288818151815260200191508051906020019080838360005b83811015610da5578082015181840152602081019050610d8a565b50505050905090810190601f168015610dd25780820380516001836020036101000a031916815260200191505b50858103835287818151815260200191508051906020019080838360005b83811015610e0b578082015181840152602081019050610df0565b50505050905090810190601f168015610e385780820380516001836020036101000a031916815260200191505b50858103825286818151815260200191508051906020019080838360005b83811015610e71578082015181840152602081019050610e56565b50505050905090810190601f168015610e9e5780820380516001836020036101000a031916815260200191505b509850505050505050505060405180910390f35b6000808273ffffffffffffffffffffffffffffffffffffffff1673ffffffffffffffffffffffffffffffffffffffff16815260200190815260200160002060008082016000610f019190612b3f565b600182016000610f119190612b3f565b600282016000610f219190612b3f565b600382016000610f319190612b3f565b600482016000610f419190612b87565b6007820160009055505050565b600060011515600560003373ffffffffffffffffffffffffffffffffffffffff1673ffffffffffffffffffffffffffffffffffffffff16815260200190815260200160002060009054906101000a900460ff1615151415610fb2576000905061117f565b60011515600160003373ffffffffffffffffffffffffffffffffffffffff1673ffffffffffffffffffffffffffffffffffffffff16815260200190815260200160002060009054906101000a900460ff1615151415611014576000905061117f565b6000600460003373ffffffffffffffffffffffffffffffffffffffff1673ffffffffffffffffffffffffffffffffffffffff16815260200190815260200160002090508581600001908051906020019061106f929190612b9c565b5084816001019080519060200190611088929190612b9c565b50838160020190805190602001906110a1929190612b9c565b50828160030190805190602001906110ba929190612b9c565b5060063390806001815401808255809150509060018203906000526020600020016000909192909190916101000a81548173ffffffffffffffffffffffffffffffffffffffff021916908373ffffffffffffffffffffffffffffffffffffffff160217905550506001600560003373ffffffffffffffffffffffffffffffffffffffff1673ffffffffffffffffffffffffffffffffffffffff16815260200190815260200160002060006101000a81548160ff02191690831515021790555060019150505b949350505050565b6060600680548060200260200160405190810160405280929190818152602001828054801561120b57602002820191906000526020600020905b8160009054906101000a900473ffffffffffffffffffffffffffffffffffffffff1673ffffffffffffffffffffffffffffffffffffffff16815260200190600101908083116111c1575b5050505050905090565b6060600280548060200260200160405190810160405280929190818152602001828054801561129957602002820191906000526020600020905b8160009054906101000a900473ffffffffffffffffffffffffffffffffffffffff1673ffffffffffffffffffffffffffffffffffffffff168152602001906001019080831161124f575b5050505050905090565b606060001515600560003373ffffffffffffffffffffffffffffffffffffffff1673ffffffffffffffffffffffffffffffffffffffff16815260200190815260200160002060009054906101000a900460ff16151514156114de578173ffffffffffffffffffffffffffffffffffffffff163373ffffffffffffffffffffffffffffffffffffffff167fbfe96fc3dab10acb5699297ced34bfdf5fbc7a65b3e04557be5b74a90f2f15c66000808673ffffffffffffffffffffffffffffffffffffffff1673ffffffffffffffffffffffffffffffffffffffff168152602001908152602001600020600701546000808773ffffffffffffffffffffffffffffffffffffffff1673ffffffffffffffffffffffffffffffffffffffff16815260200190815260200160002060040160405180806020018481526020018360038015611438576020028201915b8160009054906101000a900473ffffffffffffffffffffffffffffffffffffffff1673ffffffffffffffffffffffffffffffffffffffff16815260200190600101908083116113ee575b5050828103825260278152602001807f54656163686572204e6f7420696e204e6574776f726b3a20496e76616c69642081526020017f4164647265737300000000000000000000000000000000000000000000000000815250604001935050505060405180910390a36040805190810160405280600f81526020017f496e76616c6964206164647265737300000000000000000000000000000000008152509050611ec3565b60001515600160008473ffffffffffffffffffffffffffffffffffffffff1673ffffffffffffffffffffffffffffffffffffffff16815260200190815260200160002060009054906101000a900460ff1615151415611717578173ffffffffffffffffffffffffffffffffffffffff163373ffffffffffffffffffffffffffffffffffffffff167fbfe96fc3dab10acb5699297ced34bfdf5fbc7a65b3e04557be5b74a90f2f15c66000808673ffffffffffffffffffffffffffffffffffffffff1673ffffffffffffffffffffffffffffffffffffffff168152602001908152602001600020600701546000808773ffffffffffffffffffffffffffffffffffffffff1673ffffffffffffffffffffffffffffffffffffffff16815260200190815260200160002060040160405180806020018481526020018360038015611671576020028201915b8160009054906101000a900473ffffffffffffffffffffffffffffffffffffffff1673ffffffffffffffffffffffffffffffffffffffff1681526020019060010190808311611627575b50508281038252602b8152602001807f4365727469666963617465204e6f7420696e204e6574776f726b3a20496e766181526020017f6c69642041646472657373000000000000000000000000000000000000000000815250604001935050505060405180910390a36040805190810160405280600f81526020017f496e76616c6964206164647265737300000000000000000000000000000000008152509050611ec3565b60036000808473ffffffffffffffffffffffffffffffffffffffff1673ffffffffffffffffffffffffffffffffffffffff16815260200190815260200160002060070154141561191b578173ffffffffffffffffffffffffffffffffffffffff163373ffffffffffffffffffffffffffffffffffffffff167fbfe96fc3dab10acb5699297ced34bfdf5fbc7a65b3e04557be5b74a90f2f15c66000808673ffffffffffffffffffffffffffffffffffffffff1673ffffffffffffffffffffffffffffffffffffffff168152602001908152602001600020600701546000808773ffffffffffffffffffffffffffffffffffffffff1673ffffffffffffffffffffffffffffffffffffffff1681526020019081526020016000206004016040518080602001848152602001836003801561189b576020028201915b8160009054906101000a900473ffffffffffffffffffffffffffffffffffffffff1673ffffffffffffffffffffffffffffffffffffffff1681526020019060010190808311611851575b5050828103825260148152602001807f5665726966696564204365727469666963617465000000000000000000000000815250602001935050505060405180910390a36040805190810160405280601581526020017f56657269666966656420436572746966696361746500000000000000000000008152509050611ec3565b60008090505b6003811015611be2576000808473ffffffffffffffffffffffffffffffffffffffff1673ffffffffffffffffffffffffffffffffffffffff1681526020019081526020016000206004018160038110151561197857fe5b0160009054906101000a900473ffffffffffffffffffffffffffffffffffffffff1673ffffffffffffffffffffffffffffffffffffffff163373ffffffffffffffffffffffffffffffffffffffff161415611bd5578273ffffffffffffffffffffffffffffffffffffffff163373ffffffffffffffffffffffffffffffffffffffff167fbfe96fc3dab10acb5699297ced34bfdf5fbc7a65b3e04557be5b74a90f2f15c66000808773ffffffffffffffffffffffffffffffffffffffff1673ffffffffffffffffffffffffffffffffffffffff168152602001908152602001600020600701546000808873ffffffffffffffffffffffffffffffffffffffff1673ffffffffffffffffffffffffffffffffffffffff16815260200190815260200160002060040160405180806020018481526020018360038015611b07576020028201915b8160009054906101000a900473ffffffffffffffffffffffffffffffffffffffff1673ffffffffffffffffffffffffffffffffffffffff1681526020019060010190808311611abd575b5050828103825260298152602001807f4365727469666963617465642043616e206265207665726966696564206f6e6c81526020017f79204f6e63652e2e2e0000000000000000000000000000000000000000000000815250604001935050505060405180910390a3606060405190810160405280602681526020017f4365727469666963617465642063616e206265207665726966696564206f6e6c81526020017f79204f6e63650000000000000000000000000000000000000000000000000000815250915050611ec3565b8080600101915050611921565b50336000808473ffffffffffffffffffffffffffffffffffffffff1673ffffffffffffffffffffffffffffffffffffffff1681526020019081526020016000206004016000808573ffffffffffffffffffffffffffffffffffffffff1673ffffffffffffffffffffffffffffffffffffffff168152602001908152602001600020600701600081548092919060010191905055600381101515611c8157fe5b0160006101000a81548173ffffffffffffffffffffffffffffffffffffffff021916908373ffffffffffffffffffffffffffffffffffffffff1602179055508173ffffffffffffffffffffffffffffffffffffffff163373ffffffffffffffffffffffffffffffffffffffff167fbfe96fc3dab10acb5699297ced34bfdf5fbc7a65b3e04557be5b74a90f2f15c66000808673ffffffffffffffffffffffffffffffffffffffff1673ffffffffffffffffffffffffffffffffffffffff168152602001908152602001600020600701546000808773ffffffffffffffffffffffffffffffffffffffff1673ffffffffffffffffffffffffffffffffffffffff16815260200190815260200160002060040160405180806020018481526020018360038015611dfa576020028201915b8160009054906101000a900473ffffffffffffffffffffffffffffffffffffffff1673ffffffffffffffffffffffffffffffffffffffff1681526020019060010190808311611db0575b5050828103825260218152602001807f5665726966696572204164647265737320616464656420746f2061727261795b81526020017f5d00000000000000000000000000000000000000000000000000000000000000815250604001935050505060405180910390a3606060405190810160405280602181526020017f5665726966696572204164647265737320616464656420746f2061727261795b81526020017f5d0000000000000000000000000000000000000000000000000000000000000081525090505b919050565b6000806000806000808673ffffffffffffffffffffffffffffffffffffffff1673ffffffffffffffffffffffffffffffffffffffff168152602001908152602001600020600701546000808773ffffffffffffffffffffffffffffffffffffffff1673ffffffffffffffffffffffffffffffffffffffff1681526020019081526020016000206004016000600381101515611f5f57fe5b0160009054906101000a900473ffffffffffffffffffffffffffffffffffffffff166000808873ffffffffffffffffffffffffffffffffffffffff1673ffffffffffffffffffffffffffffffffffffffff1681526020019081526020016000206004016001600381101515611fd057fe5b0160009054906101000a900473ffffffffffffffffffffffffffffffffffffffff166000808973ffffffffffffffffffffffffffffffffffffffff1673ffffffffffffffffffffffffffffffffffffffff168152602001908152602001600020600401600260038110151561204157fe5b0160009054906101000a900473ffffffffffffffffffffffffffffffffffffffff1693509350935093509193509193565b6060806060806000808673ffffffffffffffffffffffffffffffffffffffff1673ffffffffffffffffffffffffffffffffffffffff1681526020019081526020016000206000016000808773ffffffffffffffffffffffffffffffffffffffff1673ffffffffffffffffffffffffffffffffffffffff1681526020019081526020016000206001016000808873ffffffffffffffffffffffffffffffffffffffff1673ffffffffffffffffffffffffffffffffffffffff1681526020019081526020016000206002016000808973ffffffffffffffffffffffffffffffffffffffff1673ffffffffffffffffffffffffffffffffffffffff168152602001908152602001600020600301838054600181600116156101000203166002900480601f0160208091040260200160405190810160405280929190818152602001828054600181600116156101000203166002900480156122115780601f106121e657610100808354040283529160200191612211565b820191906000526020600020905b8154815290600101906020018083116121f457829003601f168201915b50505050509350828054600181600116156101000203166002900480601f0160208091040260200160405190810160405280929190818152602001828054600181600116156101000203166002900480156122ad5780601f10612282576101008083540402835291602001916122ad565b820191906000526020600020905b81548152906001019060200180831161229057829003601f168201915b50505050509250818054600181600116156101000203166002900480601f0160208091040260200160405190810160405280929190818152602001828054600181600116156101000203166002900480156123495780601f1061231e57610100808354040283529160200191612349565b820191906000526020600020905b81548152906001019060200180831161232c57829003601f168201915b50505050509150808054600181600116156101000203166002900480601f0160208091040260200160405190810160405280929190818152602001828054600181600116156101000203166002900480156123e55780601f106123ba576101008083540402835291602001916123e5565b820191906000526020600020905b8154815290600101906020018083116123c857829003601f168201915b5050505050905093509350935093509193509193565b60068181548110151561240a57fe5b906000526020600020016000915054906101000a900473ffffffffffffffffffffffffffffffffffffffff1681565b600060011515600160003373ffffffffffffffffffffffffffffffffffffffff1673ffffffffffffffffffffffffffffffffffffffff16815260200190815260200160002060009054906101000a900460ff161515141561249d57600090506126b1565b60011515600560003373ffffffffffffffffffffffffffffffffffffffff1673ffffffffffffffffffffffffffffffffffffffff16815260200190815260200160002060009054906101000a900460ff16151514156124ff57600090506126b1565b60008060003373ffffffffffffffffffffffffffffffffffffffff1673ffffffffffffffffffffffffffffffffffffffff168152602001908152602001600020905085816000019080519060200190612559929190612b9c565b5084816001019080519060200190612572929190612b9c565b508381600201908051906020019061258b929190612b9c565b50828160030190805190602001906125a4929190612b9c565b506000816007018190555060023390806001815401808255809150509060018203906000526020600020016000909192909190916101000a81548173ffffffffffffffffffffffffffffffffffffffff021916908373ffffffffffffffffffffffffffffffffffffffff1602179055505060018060003373ffffffffffffffffffffffffffffffffffffffff1673ffffffffffffffffffffffffffffffffffffffff16815260200190815260200160002060006101000a81548160ff02191690831515021790555060038490806001815401808255809150509060018203906000526020600020016000909192909190915090805190602001906126a9929190612b9c565b505060019150505b949350505050565b6002818154811015156126c857fe5b906000526020600020016000915054906101000a900473ffffffffffffffffffffffffffffffffffffffff1681565b60038181548110151561270657fe5b906000526020600020016000915090508054600181600116156101000203166002900480601f0160208091040260200160405190810160405280929190818152602001828054600181600116156101000203166002900480156127aa5780601f1061277f576101008083540402835291602001916127aa565b820191906000526020600020905b81548152906001019060200180831161278d57829003601f168201915b505050505081565b606080606080600460008673ffffffffffffffffffffffffffffffffffffffff1673ffffffffffffffffffffffffffffffffffffffff168152602001908152602001600020600001600460008773ffffffffffffffffffffffffffffffffffffffff1673ffffffffffffffffffffffffffffffffffffffff168152602001908152602001600020600101600460008873ffffffffffffffffffffffffffffffffffffffff1673ffffffffffffffffffffffffffffffffffffffff168152602001908152602001600020600201600460008973ffffffffffffffffffffffffffffffffffffffff1673ffffffffffffffffffffffffffffffffffffffff168152602001908152602001600020600301838054600181600116156101000203166002900480601f0160208091040260200160405190810160405280929190818152602001828054600181600116156101000203166002900480156129555780601f1061292a57610100808354040283529160200191612955565b820191906000526020600020905b81548152906001019060200180831161293857829003601f168201915b50505050509350828054600181600116156101000203166002900480601f0160208091040260200160405190810160405280929190818152602001828054600181600116156101000203166002900480156129f15780601f106129c6576101008083540402835291602001916129f1565b820191906000526020600020905b8154815290600101906020018083116129d457829003601f168201915b50505050509250818054600181600116156101000203166002900480601f016020809104026020016040519081016040528092919081815260200182805460018160011615610100020316600290048015612a8d5780601f10612a6257610100808354040283529160200191612a8d565b820191906000526020600020905b815481529060010190602001808311612a7057829003601f168201915b50505050509150808054600181600116156101000203166002900480601f016020809104026020016040519081016040528092919081815260200182805460018160011615610100020316600290048015612b295780601f10612afe57610100808354040283529160200191612b29565b820191906000526020600020905b815481529060010190602001808311612b0c57829003601f168201915b5050505050905093509350935093509193509193565b50805460018160011615610100020316600290046000825580601f10612b655750612b84565b601f016020900490600052602060002090810190612b839190612c1c565b5b50565b50600081556001016000815560010160009055565b828054600181600116156101000203166002900490600052602060002090601f016020900481019282601f10612bdd57805160ff1916838001178555612c0b565b82800160010185558215612c0b579182015b82811115612c0a578251825591602001919060010190612bef565b5b509050612c189190612c1c565b5090565b612c3e91905b80821115612c3a576000816000905550600101612c22565b5090565b9056fea165627a7a72305820783cc47ce1ebc71d0e8aadf93d8055f7d15d69e3be57dc7b224575882eea4edb0029",
  "source": "pragma solidity ^0.5.0;\r\n\r\ncontract Main {\r\n\r\n    struct Student{\r\n        string usn;\r\n        string name;\r\n        string certId;\r\n        string branch;\r\n        address[3] verifier;\r\n        uint count;\r\n    }\r\n    mapping(address => Student) students;\r\n    mapping(address => bool) studCheck;\r\n    event Check(address indexed _from,address indexed _to, string certId, uint count, address[3] verify);\r\n    address[] public studentacc;\r\n    string[] public cerificateHash;\r\n    \r\n   struct Teacher{\r\n       string name;\r\n       string id;\r\n       string post;\r\n       string domain;\r\n   }\r\n   mapping (address => Teacher) teachers;\r\n   mapping(address => bool) teachCheck;\r\n   address[] public teacheracc;\r\n   \r\n    function setStudent(string memory u, string memory n, string memory cer, string memory coll)  public returns (bool) {\r\n        if(studCheck[msg.sender] == true) return false;\r\n        \r\n        if(teachCheck[msg.sender] == true) return false;\r\n        \r\n        Student storage student = students[msg.sender];\r\n        student.usn = u;\r\n        student.name = n;\r\n        student.certId = cer;\r\n        student.branch = coll;\r\n        student.count = 0;\r\n        studentacc.push(msg.sender);\r\n        studCheck[msg.sender] = true;\r\n        cerificateHash.push(cer);\r\n        return true;\r\n    }\r\n    function getStudent(address ins) view public returns (string memory, string memory, string memory, string memory){\r\n        return (students[ins].usn, students[ins].name, students[ins].certId, students[ins].branch);\r\n    }\r\n    function getVerifyedBy(address ins) view public returns (uint, address,address,address){\r\n       return (students[ins].count, students[ins].verifier[0],students[ins].verifier[1],students[ins].verifier[2]);\r\n    }\r\n    function getStudentAddress() view public returns (address[] memory)  {\r\n        return studentacc;\r\n    }\r\n\r\n   function setTeacher(string memory n, string memory i,string memory d, string memory dom ) public returns (bool) {\r\n       \r\n        if(teachCheck[msg.sender]==true) return false;\r\n        \r\n        if(studCheck[msg.sender] == true) return false;\r\n        Teacher storage teacher = teachers[msg.sender];\r\n        teacher.name = n;\r\n        teacher.id = i;\r\n        teacher.post = d;\r\n        teacher.domain = dom;\r\n        teacheracc.push(msg.sender);\r\n        teachCheck[msg.sender] = true;\r\n        return true;\r\n   }\r\n   function getTeacherAddress() view public returns (address[] memory)  {\r\n        return teacheracc;\r\n    }\r\n\r\n    function getTeacher(address ins) view public returns (string memory, string memory, string memory, string memory) {\r\n        return (teachers[ins].name, teachers[ins].id, teachers[ins].post, teachers[ins].domain);\r\n    }\r\n    function destroy (address addr) public {\r\n        //require(exists(msg.sender));\r\n        delete students[addr];\r\n        //emit UserDestroyed(msg.sender);\r\n  }\r\n    function verify(address studAdd) payable public returns(string memory){\r\n        //if teacher is a valid person in the network\r\n        \r\n        if(teachCheck[msg.sender]==false){\r\n            emit Check(msg.sender, studAdd, \"Teacher Not in Network: Invalid Address\",students[studAdd].count, students[studAdd].verifier);\r\n            return \"Invalid address\";\r\n        }\r\n        //if the Certificate address is valid in the network\r\n        if(studCheck[studAdd] == false){\r\n            emit Check(msg.sender, studAdd, \"Certificate Not in Network: Invalid Address\",students[studAdd].count, students[studAdd].verifier);\r\n            return \"Invalid address\";\r\n        }\r\n        //if the certificate to be verified is added to the network by any student or not\r\n        //Checking if the cerificate is verified by 3 teachers before\r\n        if(students[studAdd].count==3){\r\n            emit Check(msg.sender, studAdd, \"Verified Certificate\",students[studAdd].count, students[studAdd].verifier);\r\n            return \"Verififed Certificate\";\r\n        }\r\n        //For loop is to check if the certificate is verified by teacher before...\r\n        for (uint i=0; i<3; i++){\r\n            if(msg.sender == students[studAdd].verifier[i]){\r\n                emit Check(msg.sender,studAdd, \"Certificated Can be verified only Once...\",students[studAdd].count, students[studAdd].verifier);\r\n                return \"Certificated can be verified only Once\";\r\n            }\r\n        }\r\n        // If the certificate is not verified by the teacher then it verifies and the teacher address gets added to the student verifier array\r\n          \r\n          students[studAdd].verifier[students[studAdd].count++] = msg.sender;\r\n          emit Check(msg.sender, studAdd, \"Verifier Address added to array[]\" ,students[studAdd].count, students[studAdd].verifier);\r\n         return \"Verifier Address added to array[]\";\r\n    }\r\n}",
  "sourcePath": "D:/Final_Year_Project/contracts/Main.sol",
  "compiler": {
    "name": "solc",
    "version": "0.5.0+commit.1d4f565a.Emscripten.clang"
  },
  "schemaVersion": "3.0.1",
  "updatedAt": "2020-05-04T05:31:36.760Z",
  "devdoc": {
    "methods": {}
  },
  "userdoc": {
    "methods": {}
  }
}